{
  "_format": "hh-sol-artifact-1",
  "contractName": "MusicNFTMarketplace",
  "sourceName": "src/backend/contracts/MusicNFTMarketplace.sol",
  "abi": [
    {
      "inputs": [
        {
          "internalType": "uint256",
          "name": "_royaltyFee",
          "type": "uint256"
        },
        {
          "internalType": "address",
          "name": "_artist",
          "type": "address"
        },
        {
          "internalType": "uint256[]",
          "name": "_prices",
          "type": "uint256[]"
        }
      ],
      "stateMutability": "payable",
      "type": "constructor"
    },
    {
      "anonymous": false,
      "inputs": [
        {
          "indexed": true,
          "internalType": "address",
          "name": "owner",
          "type": "address"
        },
        {
          "indexed": true,
          "internalType": "address",
          "name": "approved",
          "type": "address"
        },
        {
          "indexed": true,
          "internalType": "uint256",
          "name": "tokenId",
          "type": "uint256"
        }
      ],
      "name": "Approval",
      "type": "event"
    },
    {
      "anonymous": false,
      "inputs": [
        {
          "indexed": true,
          "internalType": "address",
          "name": "owner",
          "type": "address"
        },
        {
          "indexed": true,
          "internalType": "address",
          "name": "operator",
          "type": "address"
        },
        {
          "indexed": false,
          "internalType": "bool",
          "name": "approved",
          "type": "bool"
        }
      ],
      "name": "ApprovalForAll",
      "type": "event"
    },
    {
      "anonymous": false,
      "inputs": [
        {
          "indexed": true,
          "internalType": "uint256",
          "name": "tokenId",
          "type": "uint256"
        },
        {
          "indexed": true,
          "internalType": "address",
          "name": "seller",
          "type": "address"
        },
        {
          "indexed": false,
          "internalType": "address",
          "name": "buyer",
          "type": "address"
        },
        {
          "indexed": false,
          "internalType": "uint256",
          "name": "price",
          "type": "uint256"
        }
      ],
      "name": "MarketItemBought",
      "type": "event"
    },
    {
      "anonymous": false,
      "inputs": [
        {
          "indexed": true,
          "internalType": "uint256",
          "name": "tokenId",
          "type": "uint256"
        },
        {
          "indexed": true,
          "internalType": "address",
          "name": "seller",
          "type": "address"
        },
        {
          "indexed": false,
          "internalType": "uint256",
          "name": "price",
          "type": "uint256"
        }
      ],
      "name": "MarketItemRelisted",
      "type": "event"
    },
    {
      "anonymous": false,
      "inputs": [
        {
          "indexed": true,
          "internalType": "address",
          "name": "previousOwner",
          "type": "address"
        },
        {
          "indexed": true,
          "internalType": "address",
          "name": "newOwner",
          "type": "address"
        }
      ],
      "name": "OwnershipTransferred",
      "type": "event"
    },
    {
      "anonymous": false,
      "inputs": [
        {
          "indexed": true,
          "internalType": "address",
          "name": "from",
          "type": "address"
        },
        {
          "indexed": true,
          "internalType": "address",
          "name": "to",
          "type": "address"
        },
        {
          "indexed": true,
          "internalType": "uint256",
          "name": "tokenId",
          "type": "uint256"
        }
      ],
      "name": "Transfer",
      "type": "event"
    },
    {
      "inputs": [
        {
          "internalType": "address",
          "name": "to",
          "type": "address"
        },
        {
          "internalType": "uint256",
          "name": "tokenId",
          "type": "uint256"
        }
      ],
      "name": "approve",
      "outputs": [],
      "stateMutability": "nonpayable",
      "type": "function"
    },
    {
      "inputs": [],
      "name": "artist",
      "outputs": [
        {
          "internalType": "address",
          "name": "",
          "type": "address"
        }
      ],
      "stateMutability": "view",
      "type": "function"
    },
    {
      "inputs": [
        {
          "internalType": "address",
          "name": "owner",
          "type": "address"
        }
      ],
      "name": "balanceOf",
      "outputs": [
        {
          "internalType": "uint256",
          "name": "",
          "type": "uint256"
        }
      ],
      "stateMutability": "view",
      "type": "function"
    },
    {
      "inputs": [],
      "name": "baseExtension",
      "outputs": [
        {
          "internalType": "string",
          "name": "",
          "type": "string"
        }
      ],
      "stateMutability": "view",
      "type": "function"
    },
    {
      "inputs": [],
      "name": "baseURI",
      "outputs": [
        {
          "internalType": "string",
          "name": "",
          "type": "string"
        }
      ],
      "stateMutability": "view",
      "type": "function"
    },
    {
      "inputs": [
        {
          "internalType": "uint256",
          "name": "_tokenId",
          "type": "uint256"
        }
      ],
      "name": "buyToken",
      "outputs": [],
      "stateMutability": "payable",
      "type": "function"
    },
    {
      "inputs": [],
      "name": "getAllUnsoldTokens",
      "outputs": [
        {
          "components": [
            {
              "internalType": "uint256",
              "name": "tokenId",
              "type": "uint256"
            },
            {
              "internalType": "address payable",
              "name": "seller",
              "type": "address"
            },
            {
              "internalType": "uint256",
              "name": "price",
              "type": "uint256"
            }
          ],
          "internalType": "struct MusicNFTMarketplace.MarketItem[]",
          "name": "",
          "type": "tuple[]"
        }
      ],
      "stateMutability": "view",
      "type": "function"
    },
    {
      "inputs": [
        {
          "internalType": "uint256",
          "name": "tokenId",
          "type": "uint256"
        }
      ],
      "name": "getApproved",
      "outputs": [
        {
          "internalType": "address",
          "name": "",
          "type": "address"
        }
      ],
      "stateMutability": "view",
      "type": "function"
    },
    {
      "inputs": [],
      "name": "getMyTokens",
      "outputs": [
        {
          "components": [
            {
              "internalType": "uint256",
              "name": "tokenId",
              "type": "uint256"
            },
            {
              "internalType": "address payable",
              "name": "seller",
              "type": "address"
            },
            {
              "internalType": "uint256",
              "name": "price",
              "type": "uint256"
            }
          ],
          "internalType": "struct MusicNFTMarketplace.MarketItem[]",
          "name": "",
          "type": "tuple[]"
        }
      ],
      "stateMutability": "view",
      "type": "function"
    },
    {
      "inputs": [
        {
          "internalType": "address",
          "name": "owner",
          "type": "address"
        },
        {
          "internalType": "address",
          "name": "operator",
          "type": "address"
        }
      ],
      "name": "isApprovedForAll",
      "outputs": [
        {
          "internalType": "bool",
          "name": "",
          "type": "bool"
        }
      ],
      "stateMutability": "view",
      "type": "function"
    },
    {
      "inputs": [
        {
          "internalType": "uint256",
          "name": "",
          "type": "uint256"
        }
      ],
      "name": "marketItems",
      "outputs": [
        {
          "internalType": "uint256",
          "name": "tokenId",
          "type": "uint256"
        },
        {
          "internalType": "address payable",
          "name": "seller",
          "type": "address"
        },
        {
          "internalType": "uint256",
          "name": "price",
          "type": "uint256"
        }
      ],
      "stateMutability": "view",
      "type": "function"
    },
    {
      "inputs": [],
      "name": "name",
      "outputs": [
        {
          "internalType": "string",
          "name": "",
          "type": "string"
        }
      ],
      "stateMutability": "view",
      "type": "function"
    },
    {
      "inputs": [],
      "name": "owner",
      "outputs": [
        {
          "internalType": "address",
          "name": "",
          "type": "address"
        }
      ],
      "stateMutability": "view",
      "type": "function"
    },
    {
      "inputs": [
        {
          "internalType": "uint256",
          "name": "tokenId",
          "type": "uint256"
        }
      ],
      "name": "ownerOf",
      "outputs": [
        {
          "internalType": "address",
          "name": "",
          "type": "address"
        }
      ],
      "stateMutability": "view",
      "type": "function"
    },
    {
      "inputs": [],
      "name": "renounceOwnership",
      "outputs": [],
      "stateMutability": "nonpayable",
      "type": "function"
    },
    {
      "inputs": [
        {
          "internalType": "uint256",
          "name": "_tokenId",
          "type": "uint256"
        },
        {
          "internalType": "uint256",
          "name": "price",
          "type": "uint256"
        }
      ],
      "name": "resellToken",
      "outputs": [],
      "stateMutability": "payable",
      "type": "function"
    },
    {
      "inputs": [],
      "name": "royaltyFee",
      "outputs": [
        {
          "internalType": "uint256",
          "name": "",
          "type": "uint256"
        }
      ],
      "stateMutability": "view",
      "type": "function"
    },
    {
      "inputs": [
        {
          "internalType": "address",
          "name": "from",
          "type": "address"
        },
        {
          "internalType": "address",
          "name": "to",
          "type": "address"
        },
        {
          "internalType": "uint256",
          "name": "tokenId",
          "type": "uint256"
        }
      ],
      "name": "safeTransferFrom",
      "outputs": [],
      "stateMutability": "nonpayable",
      "type": "function"
    },
    {
      "inputs": [
        {
          "internalType": "address",
          "name": "from",
          "type": "address"
        },
        {
          "internalType": "address",
          "name": "to",
          "type": "address"
        },
        {
          "internalType": "uint256",
          "name": "tokenId",
          "type": "uint256"
        },
        {
          "internalType": "bytes",
          "name": "_data",
          "type": "bytes"
        }
      ],
      "name": "safeTransferFrom",
      "outputs": [],
      "stateMutability": "nonpayable",
      "type": "function"
    },
    {
      "inputs": [
        {
          "internalType": "address",
          "name": "operator",
          "type": "address"
        },
        {
          "internalType": "bool",
          "name": "approved",
          "type": "bool"
        }
      ],
      "name": "setApprovalForAll",
      "outputs": [],
      "stateMutability": "nonpayable",
      "type": "function"
    },
    {
      "inputs": [
        {
          "internalType": "bytes4",
          "name": "interfaceId",
          "type": "bytes4"
        }
      ],
      "name": "supportsInterface",
      "outputs": [
        {
          "internalType": "bool",
          "name": "",
          "type": "bool"
        }
      ],
      "stateMutability": "view",
      "type": "function"
    },
    {
      "inputs": [],
      "name": "symbol",
      "outputs": [
        {
          "internalType": "string",
          "name": "",
          "type": "string"
        }
      ],
      "stateMutability": "view",
      "type": "function"
    },
    {
      "inputs": [
        {
          "internalType": "uint256",
          "name": "tokenId",
          "type": "uint256"
        }
      ],
      "name": "tokenURI",
      "outputs": [
        {
          "internalType": "string",
          "name": "",
          "type": "string"
        }
      ],
      "stateMutability": "view",
      "type": "function"
    },
    {
      "inputs": [
        {
          "internalType": "address",
          "name": "from",
          "type": "address"
        },
        {
          "internalType": "address",
          "name": "to",
          "type": "address"
        },
        {
          "internalType": "uint256",
          "name": "tokenId",
          "type": "uint256"
        }
      ],
      "name": "transferFrom",
      "outputs": [],
      "stateMutability": "nonpayable",
      "type": "function"
    },
    {
      "inputs": [
        {
          "internalType": "address",
          "name": "newOwner",
          "type": "address"
        }
      ],
      "name": "transferOwnership",
      "outputs": [],
      "stateMutability": "nonpayable",
      "type": "function"
    },
    {
      "inputs": [
        {
          "internalType": "uint256",
          "name": "_royaltyFee",
          "type": "uint256"
        }
      ],
      "name": "updateRoyaltyFee",
      "outputs": [],
      "stateMutability": "payable",
      "type": "function"
    }
  ],
  "bytecode": "0x6080604052604051806080016040528060598152602001620047c460599139600790805190602001906200003592919062000712565b506040518060400160405280600581526020017f2e6a736f6e000000000000000000000000000000000000000000000000000000815250600890805190602001906200008392919062000712565b506040516200481d3803806200481d8339818101604052810190620000a9919062000892565b6040518060400160405280600681526020017f44417070466900000000000000000000000000000000000000000000000000008152506040518060400160405280600481526020017f444150500000000000000000000000000000000000000000000000000000000081525081600090805190602001906200012d92919062000712565b5080600190805190602001906200014692919062000712565b505050620001696200015d620003d460201b60201c565b620003dc60201b60201c565b3483825162000179919062000aeb565b1115620001bd576040517f08c379a0000000000000000000000000000000000000000000000000000000008152600401620001b490620009e1565b60405180910390fd5b82600a8190555081600960006101000a81548173ffffffffffffffffffffffffffffffffffffffff021916908373ffffffffffffffffffffffffffffffffffffffff16021790555060005b81518160ff161015620003ca576000828260ff168151811062000254577f4e487b7100000000000000000000000000000000000000000000000000000000600052603260045260246000fd5b6020026020010151116200029f576040517f08c379a0000000000000000000000000000000000000000000000000000000008152600401620002969062000a03565b60405180910390fd5b620002b4308260ff16620004a260201b60201c565b600b60405180606001604052808360ff1681526020013373ffffffffffffffffffffffffffffffffffffffff168152602001848460ff168151811062000323577f4e487b7100000000000000000000000000000000000000000000000000000000600052603260045260246000fd5b602002602001015181525090806001815401808255809150506001900390600052602060002090600302016000909190919091506000820151816000015560208201518160010160006101000a81548173ffffffffffffffffffffffffffffffffffffffff021916908373ffffffffffffffffffffffffffffffffffffffff1602179055506040820151816002015550508080620003c19062000c03565b91505062000208565b5050505062000df4565b600033905090565b6000600660009054906101000a900473ffffffffffffffffffffffffffffffffffffffff16905081600660006101000a81548173ffffffffffffffffffffffffffffffffffffffff021916908373ffffffffffffffffffffffffffffffffffffffff1602179055508173ffffffffffffffffffffffffffffffffffffffff168173ffffffffffffffffffffffffffffffffffffffff167f8be0079c531659141344cd1fd0a4f28419497f9722a3daafe3b4186f6b6457e060405160405180910390a35050565b600073ffffffffffffffffffffffffffffffffffffffff168273ffffffffffffffffffffffffffffffffffffffff16141562000515576040517f08c379a00000000000000000000000000000000000000000000000000000000081526004016200050c90620009bf565b60405180910390fd5b62000526816200069c60201b60201c565b1562000569576040517f08c379a000000000000000000000000000000000000000000000000000000000815260040162000560906200099d565b60405180910390fd5b6200057d600083836200070860201b60201c565b6001600360008473ffffffffffffffffffffffffffffffffffffffff1673ffffffffffffffffffffffffffffffffffffffff1681526020019081526020016000206000828254620005cf919062000a8e565b92505081905550816002600083815260200190815260200160002060006101000a81548173ffffffffffffffffffffffffffffffffffffffff021916908373ffffffffffffffffffffffffffffffffffffffff160217905550808273ffffffffffffffffffffffffffffffffffffffff16600073ffffffffffffffffffffffffffffffffffffffff167fddf252ad1be2c89b69c2b068fc378daa952ba7f163c4a11628f55a4df523b3ef60405160405180910390a462000698600083836200070d60201b60201c565b5050565b60008073ffffffffffffffffffffffffffffffffffffffff166002600084815260200190815260200160002060009054906101000a900473ffffffffffffffffffffffffffffffffffffffff1673ffffffffffffffffffffffffffffffffffffffff1614159050919050565b505050565b505050565b828054620007209062000b97565b90600052602060002090601f01602090048101928262000744576000855562000790565b82601f106200075f57805160ff191683800117855562000790565b8280016001018555821562000790579182015b828111156200078f57825182559160200191906001019062000772565b5b5090506200079f9190620007a3565b5090565b5b80821115620007be576000816000905550600101620007a4565b5090565b6000620007d9620007d38462000a4e565b62000a25565b90508083825260208201905082856020860282011115620007f957600080fd5b60005b858110156200082d57816200081288826200087b565b845260208401935060208301925050600181019050620007fc565b5050509392505050565b600081519050620008488162000dc0565b92915050565b600082601f8301126200086057600080fd5b815162000872848260208601620007c2565b91505092915050565b6000815190506200088c8162000dda565b92915050565b600080600060608486031215620008a857600080fd5b6000620008b8868287016200087b565b9350506020620008cb8682870162000837565b925050604084015167ffffffffffffffff811115620008e957600080fd5b620008f7868287016200084e565b9150509250925092565b600062000910601c8362000a7d565b91506200091d8262000cd0565b602082019050919050565b60006200093760208362000a7d565b9150620009448262000cf9565b602082019050919050565b60006200095e60468362000a7d565b91506200096b8262000d22565b606082019050919050565b600062000985601c8362000a7d565b9150620009928262000d97565b602082019050919050565b60006020820190508181036000830152620009b88162000901565b9050919050565b60006020820190508181036000830152620009da8162000928565b9050919050565b60006020820190508181036000830152620009fc816200094f565b9050919050565b6000602082019050818103600083015262000a1e8162000976565b9050919050565b600062000a3162000a44565b905062000a3f828262000bcd565b919050565b6000604051905090565b600067ffffffffffffffff82111562000a6c5762000a6b62000c90565b5b602082029050602081019050919050565b600082825260208201905092915050565b600062000a9b8262000b80565b915062000aa88362000b80565b9250827fffffffffffffffffffffffffffffffffffffffffffffffffffffffffffffffff0382111562000ae05762000adf62000c32565b5b828201905092915050565b600062000af88262000b80565b915062000b058362000b80565b9250817fffffffffffffffffffffffffffffffffffffffffffffffffffffffffffffffff048311821515161562000b415762000b4062000c32565b5b828202905092915050565b600062000b598262000b60565b9050919050565b600073ffffffffffffffffffffffffffffffffffffffff82169050919050565b6000819050919050565b600060ff82169050919050565b6000600282049050600182168062000bb057607f821691505b6020821081141562000bc75762000bc662000c61565b5b50919050565b62000bd88262000cbf565b810181811067ffffffffffffffff8211171562000bfa5762000bf962000c90565b5b80604052505050565b600062000c108262000b8a565b915060ff82141562000c275762000c2662000c32565b5b600182019050919050565b7f4e487b7100000000000000000000000000000000000000000000000000000000600052601160045260246000fd5b7f4e487b7100000000000000000000000000000000000000000000000000000000600052602260045260246000fd5b7f4e487b7100000000000000000000000000000000000000000000000000000000600052604160045260246000fd5b6000601f19601f8301169050919050565b7f4552433732313a20746f6b656e20616c7265616479206d696e74656400000000600082015250565b7f4552433732313a206d696e7420746f20746865207a65726f2061646472657373600082015250565b7f4465706c6f796572206d7573742070617920726f79616c74792066656520666f60008201527f72206561636820746f6b656e206c6973746564206f6e20746865206d61726b6560208201527f74706c6163650000000000000000000000000000000000000000000000000000604082015250565b7f5072696365206d7573742062652067726561746572207468616e203000000000600082015250565b62000dcb8162000b4c565b811462000dd757600080fd5b50565b62000de58162000b80565b811462000df157600080fd5b50565b6139c08062000e046000396000f3fe6080604052600436106101815760003560e01c806370a08231116100d1578063b88d4fde1161008a578063c87b56dd11610064578063c87b56dd14610558578063e219fc7514610595578063e985e9c5146105b1578063f2fde38b146105ee57610181565b8063b88d4fde146104d9578063b8997a9714610502578063c66828621461052d57610181565b806370a08231146103db578063715018a614610418578063767dd0761461042f5780638da5cb5b1461045a57806395d89b4114610485578063a22cb465146104b057610181565b806342842e0e1161013e57806351f28e141161011857806351f28e14146103095780635b3b136a146103485780636352211e146103735780636c0360eb146103b057610181565b806342842e0e1461029957806343bc1612146102c25780634e83be47146102ed57610181565b806301ffc9a71461018657806306fdde03146101c3578063081812fc146101ee578063095ea7b31461022b57806323b872dd146102545780632d296bf11461027d575b600080fd5b34801561019257600080fd5b506101ad60048036038101906101a8919061281e565b610617565b6040516101ba9190612db3565b60405180910390f35b3480156101cf57600080fd5b506101d86106f9565b6040516101e59190612dce565b60405180910390f35b3480156101fa57600080fd5b5061021560048036038101906102109190612870565b61078b565b6040516102229190612d01565b60405180910390f35b34801561023757600080fd5b50610252600480360381019061024d91906127e2565b610810565b005b34801561026057600080fd5b5061027b600480360381019061027691906126dc565b610928565b005b61029760048036038101906102929190612870565b610988565b005b3480156102a557600080fd5b506102c060048036038101906102bb91906126dc565b610c28565b005b3480156102ce57600080fd5b506102d7610c48565b6040516102e49190612d01565b60405180910390f35b61030760048036038101906103029190612870565b610c6e565b005b34801561031557600080fd5b50610330600480360381019061032b9190612870565b610cf4565b60405161033f9392919061302b565b60405180910390f35b34801561035457600080fd5b5061035d610d4e565b60405161036a9190612d91565b60405180910390f35b34801561037f57600080fd5b5061039a60048036038101906103959190612870565b610f59565b6040516103a79190612d01565b60405180910390f35b3480156103bc57600080fd5b506103c561100b565b6040516103d29190612dce565b60405180910390f35b3480156103e757600080fd5b5061040260048036038101906103fd9190612677565b611099565b60405161040f9190613010565b60405180910390f35b34801561042457600080fd5b5061042d611151565b005b34801561043b57600080fd5b506104446111d9565b6040516104519190612d91565b60405180910390f35b34801561046657600080fd5b5061046f611447565b60405161047c9190612d01565b60405180910390f35b34801561049157600080fd5b5061049a611471565b6040516104a79190612dce565b60405180910390f35b3480156104bc57600080fd5b506104d760048036038101906104d291906127a6565b611503565b005b3480156104e557600080fd5b5061050060048036038101906104fb919061272b565b611519565b005b34801561050e57600080fd5b5061051761157b565b6040516105249190613010565b60405180910390f35b34801561053957600080fd5b50610542611581565b60405161054f9190612dce565b60405180910390f35b34801561056457600080fd5b5061057f600480360381019061057a9190612870565b61160f565b60405161058c9190612dce565b60405180910390f35b6105af60048036038101906105aa9190612899565b6116b6565b005b3480156105bd57600080fd5b506105d860048036038101906105d391906126a0565b611875565b6040516105e59190612db3565b60405180910390f35b3480156105fa57600080fd5b5061061560048036038101906106109190612677565b611909565b005b60007f80ac58cd000000000000000000000000000000000000000000000000000000007bffffffffffffffffffffffffffffffffffffffffffffffffffffffff1916827bffffffffffffffffffffffffffffffffffffffffffffffffffffffff191614806106e257507f5b5e139f000000000000000000000000000000000000000000000000000000007bffffffffffffffffffffffffffffffffffffffffffffffffffffffff1916827bffffffffffffffffffffffffffffffffffffffffffffffffffffffff1916145b806106f257506106f182611a01565b5b9050919050565b606060008054610708906132b7565b80601f0160208091040260200160405190810160405280929190818152602001828054610734906132b7565b80156107815780601f1061075657610100808354040283529160200191610781565b820191906000526020600020905b81548152906001019060200180831161076457829003601f168201915b5050505050905090565b600061079682611a6b565b6107d5576040517f08c379a00000000000000000000000000000000000000000000000000000000081526004016107cc90612f50565b60405180910390fd5b6004600083815260200190815260200160002060009054906101000a900473ffffffffffffffffffffffffffffffffffffffff169050919050565b600061081b82610f59565b90508073ffffffffffffffffffffffffffffffffffffffff168373ffffffffffffffffffffffffffffffffffffffff16141561088c576040517f08c379a000000000000000000000000000000000000000000000000000000000815260040161088390612fb0565b60405180910390fd5b8073ffffffffffffffffffffffffffffffffffffffff166108ab611ad7565b73ffffffffffffffffffffffffffffffffffffffff1614806108da57506108d9816108d4611ad7565b611875565b5b610919576040517f08c379a000000000000000000000000000000000000000000000000000000000815260040161091090612ed0565b60405180910390fd5b6109238383611adf565b505050565b610939610933611ad7565b82611b98565b610978576040517f08c379a000000000000000000000000000000000000000000000000000000000815260040161096f90612ff0565b60405180910390fd5b610983838383611c76565b505050565b6000600b82815481106109c4577f4e487b7100000000000000000000000000000000000000000000000000000000600052603260045260246000fd5b90600052602060002090600302016002015490506000600b8381548110610a14577f4e487b7100000000000000000000000000000000000000000000000000000000600052603260045260246000fd5b906000526020600020906003020160010160009054906101000a900473ffffffffffffffffffffffffffffffffffffffff169050813414610a8a576040517f08c379a0000000000000000000000000000000000000000000000000000000008152600401610a8190612f30565b60405180910390fd5b6000600b8481548110610ac6577f4e487b7100000000000000000000000000000000000000000000000000000000600052603260045260246000fd5b906000526020600020906003020160010160006101000a81548173ffffffffffffffffffffffffffffffffffffffff021916908373ffffffffffffffffffffffffffffffffffffffff160217905550610b20303385611c76565b600960009054906101000a900473ffffffffffffffffffffffffffffffffffffffff1673ffffffffffffffffffffffffffffffffffffffff166108fc600a549081150290604051600060405180830381858888f19350505050158015610b8a573d6000803e3d6000fd5b508073ffffffffffffffffffffffffffffffffffffffff166108fc349081150290604051600060405180830381858888f19350505050158015610bd1573d6000803e3d6000fd5b508073ffffffffffffffffffffffffffffffffffffffff16837fd356b8423ef89ccba8e4f1dbeccc60b41825fd97d432f2e6a6dbd11ae6ecec113385604051610c1b929190612d68565b60405180910390a3505050565b610c4383838360405180602001604052806000815250611519565b505050565b600960009054906101000a900473ffffffffffffffffffffffffffffffffffffffff1681565b610c76611ad7565b73ffffffffffffffffffffffffffffffffffffffff16610c94611447565b73ffffffffffffffffffffffffffffffffffffffff1614610cea576040517f08c379a0000000000000000000000000000000000000000000000000000000008152600401610ce190612f70565b60405180910390fd5b80600a8190555050565b600b8181548110610d0457600080fd5b90600052602060002090600302016000915090508060000154908060010160009054906101000a900473ffffffffffffffffffffffffffffffffffffffff16908060020154905083565b60606000610d5b33611099565b905060008167ffffffffffffffff811115610d9f577f4e487b7100000000000000000000000000000000000000000000000000000000600052604160045260246000fd5b604051908082528060200260200182016040528015610dd857816020015b610dc561256f565b815260200190600190039081610dbd5790505b509050600080600090505b600b80549050811015610f4f573373ffffffffffffffffffffffffffffffffffffffff16610e1082610f59565b73ffffffffffffffffffffffffffffffffffffffff161415610f3c57600b8181548110610e66577f4e487b7100000000000000000000000000000000000000000000000000000000600052603260045260246000fd5b9060005260206000209060030201604051806060016040529081600082015481526020016001820160009054906101000a900473ffffffffffffffffffffffffffffffffffffffff1673ffffffffffffffffffffffffffffffffffffffff1673ffffffffffffffffffffffffffffffffffffffff168152602001600282015481525050838381518110610f22577f4e487b7100000000000000000000000000000000000000000000000000000000600052603260045260246000fd5b60200260200101819052508180610f389061331a565b9250505b8080610f479061331a565b915050610de3565b5081935050505090565b6000806002600084815260200190815260200160002060009054906101000a900473ffffffffffffffffffffffffffffffffffffffff169050600073ffffffffffffffffffffffffffffffffffffffff168173ffffffffffffffffffffffffffffffffffffffff161415611002576040517f08c379a0000000000000000000000000000000000000000000000000000000008152600401610ff990612f10565b60405180910390fd5b80915050919050565b60078054611018906132b7565b80601f0160208091040260200160405190810160405280929190818152602001828054611044906132b7565b80156110915780601f1061106657610100808354040283529160200191611091565b820191906000526020600020905b81548152906001019060200180831161107457829003601f168201915b505050505081565b60008073ffffffffffffffffffffffffffffffffffffffff168273ffffffffffffffffffffffffffffffffffffffff16141561110a576040517f08c379a000000000000000000000000000000000000000000000000000000000815260040161110190612ef0565b60405180910390fd5b600360008373ffffffffffffffffffffffffffffffffffffffff1673ffffffffffffffffffffffffffffffffffffffff168152602001908152602001600020549050919050565b611159611ad7565b73ffffffffffffffffffffffffffffffffffffffff16611177611447565b73ffffffffffffffffffffffffffffffffffffffff16146111cd576040517f08c379a00000000000000000000000000000000000000000000000000000000081526004016111c490612f70565b60405180910390fd5b6111d76000611edd565b565b606060006111e630611099565b905060008167ffffffffffffffff81111561122a577f4e487b7100000000000000000000000000000000000000000000000000000000600052604160045260246000fd5b60405190808252806020026020018201604052801561126357816020015b61125061256f565b8152602001906001900390816112485790505b509050600080600090505b600b8054905081101561143d57600073ffffffffffffffffffffffffffffffffffffffff16600b82815481106112cd577f4e487b7100000000000000000000000000000000000000000000000000000000600052603260045260246000fd5b906000526020600020906003020160010160009054906101000a900473ffffffffffffffffffffffffffffffffffffffff1673ffffffffffffffffffffffffffffffffffffffff161461142a57600b8181548110611354577f4e487b7100000000000000000000000000000000000000000000000000000000600052603260045260246000fd5b9060005260206000209060030201604051806060016040529081600082015481526020016001820160009054906101000a900473ffffffffffffffffffffffffffffffffffffffff1673ffffffffffffffffffffffffffffffffffffffff1673ffffffffffffffffffffffffffffffffffffffff168152602001600282015481525050838381518110611410577f4e487b7100000000000000000000000000000000000000000000000000000000600052603260045260246000fd5b602002602001018190525081806114269061331a565b9250505b80806114359061331a565b91505061126e565b5081935050505090565b6000600660009054906101000a900473ffffffffffffffffffffffffffffffffffffffff16905090565b606060018054611480906132b7565b80601f01602080910402602001604051908101604052809291908181526020018280546114ac906132b7565b80156114f95780601f106114ce576101008083540402835291602001916114f9565b820191906000526020600020905b8154815290600101906020018083116114dc57829003601f168201915b5050505050905090565b61151561150e611ad7565b8383611fa3565b5050565b61152a611524611ad7565b83611b98565b611569576040517f08c379a000000000000000000000000000000000000000000000000000000000815260040161156090612ff0565b60405180910390fd5b61157584848484612110565b50505050565b600a5481565b6008805461158e906132b7565b80601f01602080910402602001604051908101604052809291908181526020018280546115ba906132b7565b80156116075780601f106115dc57610100808354040283529160200191611607565b820191906000526020600020905b8154815290600101906020018083116115ea57829003601f168201915b505050505081565b606061161a82611a6b565b611659576040517f08c379a000000000000000000000000000000000000000000000000000000000815260040161165090612f90565b60405180910390fd5b600061166361216c565b9050600081511161168357604051806020016040528060008152506116ae565b8061168d846121fe565b60405160200161169e929190612cdd565b6040516020818303038152906040525b915050919050565b600a5434146116fa576040517f08c379a00000000000000000000000000000000000000000000000000000000081526004016116f190612fd0565b60405180910390fd5b6000811161173d576040517f08c379a000000000000000000000000000000000000000000000000000000000815260040161173490612df0565b60405180910390fd5b80600b8381548110611778577f4e487b7100000000000000000000000000000000000000000000000000000000600052603260045260246000fd5b90600052602060002090600302016002018190555033600b83815481106117c8577f4e487b7100000000000000000000000000000000000000000000000000000000600052603260045260246000fd5b906000526020600020906003020160010160006101000a81548173ffffffffffffffffffffffffffffffffffffffff021916908373ffffffffffffffffffffffffffffffffffffffff160217905550611822333084611c76565b3373ffffffffffffffffffffffffffffffffffffffff16827fb2ba12d2566848b13548a3741edb565b69d3cbce7796959cd67431610207eb13836040516118699190613010565b60405180910390a35050565b6000600560008473ffffffffffffffffffffffffffffffffffffffff1673ffffffffffffffffffffffffffffffffffffffff16815260200190815260200160002060008373ffffffffffffffffffffffffffffffffffffffff1673ffffffffffffffffffffffffffffffffffffffff16815260200190815260200160002060009054906101000a900460ff16905092915050565b611911611ad7565b73ffffffffffffffffffffffffffffffffffffffff1661192f611447565b73ffffffffffffffffffffffffffffffffffffffff1614611985576040517f08c379a000000000000000000000000000000000000000000000000000000000815260040161197c90612f70565b60405180910390fd5b600073ffffffffffffffffffffffffffffffffffffffff168173ffffffffffffffffffffffffffffffffffffffff1614156119f5576040517f08c379a00000000000000000000000000000000000000000000000000000000081526004016119ec90612e30565b60405180910390fd5b6119fe81611edd565b50565b60007f01ffc9a7000000000000000000000000000000000000000000000000000000007bffffffffffffffffffffffffffffffffffffffffffffffffffffffff1916827bffffffffffffffffffffffffffffffffffffffffffffffffffffffff1916149050919050565b60008073ffffffffffffffffffffffffffffffffffffffff166002600084815260200190815260200160002060009054906101000a900473ffffffffffffffffffffffffffffffffffffffff1673ffffffffffffffffffffffffffffffffffffffff1614159050919050565b600033905090565b816004600083815260200190815260200160002060006101000a81548173ffffffffffffffffffffffffffffffffffffffff021916908373ffffffffffffffffffffffffffffffffffffffff160217905550808273ffffffffffffffffffffffffffffffffffffffff16611b5283610f59565b73ffffffffffffffffffffffffffffffffffffffff167f8c5be1e5ebec7d5bd14f71427d1e84f3dd0314c0f7b2291e5b200ac8c7c3b92560405160405180910390a45050565b6000611ba382611a6b565b611be2576040517f08c379a0000000000000000000000000000000000000000000000000000000008152600401611bd990612eb0565b60405180910390fd5b6000611bed83610f59565b90508073ffffffffffffffffffffffffffffffffffffffff168473ffffffffffffffffffffffffffffffffffffffff161480611c5c57508373ffffffffffffffffffffffffffffffffffffffff16611c448461078b565b73ffffffffffffffffffffffffffffffffffffffff16145b80611c6d5750611c6c8185611875565b5b91505092915050565b8273ffffffffffffffffffffffffffffffffffffffff16611c9682610f59565b73ffffffffffffffffffffffffffffffffffffffff1614611cec576040517f08c379a0000000000000000000000000000000000000000000000000000000008152600401611ce390612e50565b60405180910390fd5b600073ffffffffffffffffffffffffffffffffffffffff168273ffffffffffffffffffffffffffffffffffffffff161415611d5c576040517f08c379a0000000000000000000000000000000000000000000000000000000008152600401611d5390612e70565b60405180910390fd5b611d678383836123ab565b611d72600082611adf565b6001600360008573ffffffffffffffffffffffffffffffffffffffff1673ffffffffffffffffffffffffffffffffffffffff1681526020019081526020016000206000828254611dc291906131bb565b925050819055506001600360008473ffffffffffffffffffffffffffffffffffffffff1673ffffffffffffffffffffffffffffffffffffffff1681526020019081526020016000206000828254611e199190613134565b92505081905550816002600083815260200190815260200160002060006101000a81548173ffffffffffffffffffffffffffffffffffffffff021916908373ffffffffffffffffffffffffffffffffffffffff160217905550808273ffffffffffffffffffffffffffffffffffffffff168473ffffffffffffffffffffffffffffffffffffffff167fddf252ad1be2c89b69c2b068fc378daa952ba7f163c4a11628f55a4df523b3ef60405160405180910390a4611ed88383836123b0565b505050565b6000600660009054906101000a900473ffffffffffffffffffffffffffffffffffffffff16905081600660006101000a81548173ffffffffffffffffffffffffffffffffffffffff021916908373ffffffffffffffffffffffffffffffffffffffff1602179055508173ffffffffffffffffffffffffffffffffffffffff168173ffffffffffffffffffffffffffffffffffffffff167f8be0079c531659141344cd1fd0a4f28419497f9722a3daafe3b4186f6b6457e060405160405180910390a35050565b8173ffffffffffffffffffffffffffffffffffffffff168373ffffffffffffffffffffffffffffffffffffffff161415612012576040517f08c379a000000000000000000000000000000000000000000000000000000000815260040161200990612e90565b60405180910390fd5b80600560008573ffffffffffffffffffffffffffffffffffffffff1673ffffffffffffffffffffffffffffffffffffffff16815260200190815260200160002060008473ffffffffffffffffffffffffffffffffffffffff1673ffffffffffffffffffffffffffffffffffffffff16815260200190815260200160002060006101000a81548160ff0219169083151502179055508173ffffffffffffffffffffffffffffffffffffffff168373ffffffffffffffffffffffffffffffffffffffff167f17307eab39ab6107e8899845ad3d59bd9653f200f220920489ca2b5937696c31836040516121039190612db3565b60405180910390a3505050565b61211b848484611c76565b612127848484846123b5565b612166576040517f08c379a000000000000000000000000000000000000000000000000000000000815260040161215d90612e10565b60405180910390fd5b50505050565b60606007805461217b906132b7565b80601f01602080910402602001604051908101604052809291908181526020018280546121a7906132b7565b80156121f45780601f106121c9576101008083540402835291602001916121f4565b820191906000526020600020905b8154815290600101906020018083116121d757829003601f168201915b5050505050905090565b60606000821415612246576040518060400160405280600181526020017f300000000000000000000000000000000000000000000000000000000000000081525090506123a6565b600082905060005b600082146122785780806122619061331a565b915050600a82612271919061318a565b915061224e565b60008167ffffffffffffffff8111156122ba577f4e487b7100000000000000000000000000000000000000000000000000000000600052604160045260246000fd5b6040519080825280601f01601f1916602001820160405280156122ec5781602001600182028036833780820191505090505b5090505b6000851461239f5760018261230591906131bb565b9150600a856123149190613363565b60306123209190613134565b60f81b81838151811061235c577f4e487b7100000000000000000000000000000000000000000000000000000000600052603260045260246000fd5b60200101907effffffffffffffffffffffffffffffffffffffffffffffffffffffffffffff1916908160001a905350600a85612398919061318a565b94506122f0565b8093505050505b919050565b505050565b505050565b60006123d68473ffffffffffffffffffffffffffffffffffffffff1661254c565b1561253f578373ffffffffffffffffffffffffffffffffffffffff1663150b7a026123ff611ad7565b8786866040518563ffffffff1660e01b81526004016124219493929190612d1c565b602060405180830381600087803b15801561243b57600080fd5b505af192505050801561246c57506040513d601f19601f820116820180604052508101906124699190612847565b60015b6124ef573d806000811461249c576040519150601f19603f3d011682016040523d82523d6000602084013e6124a1565b606091505b506000815114156124e7576040517f08c379a00000000000000000000000000000000000000000000000000000000081526004016124de90612e10565b60405180910390fd5b805181602001fd5b63150b7a0260e01b7bffffffffffffffffffffffffffffffffffffffffffffffffffffffff1916817bffffffffffffffffffffffffffffffffffffffffffffffffffffffff191614915050612544565b600190505b949350505050565b6000808273ffffffffffffffffffffffffffffffffffffffff163b119050919050565b604051806060016040528060008152602001600073ffffffffffffffffffffffffffffffffffffffff168152602001600081525090565b60006125b96125b484613087565b613062565b9050828152602081018484840111156125d157600080fd5b6125dc848285613275565b509392505050565b6000813590506125f38161392e565b92915050565b60008135905061260881613945565b92915050565b60008135905061261d8161395c565b92915050565b6000815190506126328161395c565b92915050565b600082601f83011261264957600080fd5b81356126598482602086016125a6565b91505092915050565b60008135905061267181613973565b92915050565b60006020828403121561268957600080fd5b6000612697848285016125e4565b91505092915050565b600080604083850312156126b357600080fd5b60006126c1858286016125e4565b92505060206126d2858286016125e4565b9150509250929050565b6000806000606084860312156126f157600080fd5b60006126ff868287016125e4565b9350506020612710868287016125e4565b925050604061272186828701612662565b9150509250925092565b6000806000806080858703121561274157600080fd5b600061274f878288016125e4565b9450506020612760878288016125e4565b935050604061277187828801612662565b925050606085013567ffffffffffffffff81111561278e57600080fd5b61279a87828801612638565b91505092959194509250565b600080604083850312156127b957600080fd5b60006127c7858286016125e4565b92505060206127d8858286016125f9565b9150509250929050565b600080604083850312156127f557600080fd5b6000612803858286016125e4565b925050602061281485828601612662565b9150509250929050565b60006020828403121561283057600080fd5b600061283e8482850161260e565b91505092915050565b60006020828403121561285957600080fd5b600061286784828501612623565b91505092915050565b60006020828403121561288257600080fd5b600061289084828501612662565b91505092915050565b600080604083850312156128ac57600080fd5b60006128ba85828601612662565b92505060206128cb85828601612662565b9150509250929050565b60006128e18383612c7d565b60608301905092915050565b6128f681613201565b82525050565b61290581613201565b82525050565b612914816131ef565b82525050565b6000612925826130c8565b61292f81856130f6565b935061293a836130b8565b8060005b8381101561296b57815161295288826128d5565b975061295d836130e9565b92505060018101905061293e565b5085935050505092915050565b61298181613213565b82525050565b6000612992826130d3565b61299c8185613107565b93506129ac818560208601613284565b6129b581613450565b840191505092915050565b60006129cb826130de565b6129d58185613118565b93506129e5818560208601613284565b6129ee81613450565b840191505092915050565b6000612a04826130de565b612a0e8185613129565b9350612a1e818560208601613284565b80840191505092915050565b6000612a37601f83613118565b9150612a4282613461565b602082019050919050565b6000612a5a603283613118565b9150612a658261348a565b604082019050919050565b6000612a7d602683613118565b9150612a88826134d9565b604082019050919050565b6000612aa0602583613118565b9150612aab82613528565b604082019050919050565b6000612ac3602483613118565b9150612ace82613577565b604082019050919050565b6000612ae6601983613118565b9150612af1826135c6565b602082019050919050565b6000612b09602c83613118565b9150612b14826135ef565b604082019050919050565b6000612b2c603883613118565b9150612b378261363e565b604082019050919050565b6000612b4f602a83613118565b9150612b5a8261368d565b604082019050919050565b6000612b72602983613118565b9150612b7d826136dc565b604082019050919050565b6000612b95603e83613118565b9150612ba08261372b565b604082019050919050565b6000612bb8602c83613118565b9150612bc38261377a565b604082019050919050565b6000612bdb602083613118565b9150612be6826137c9565b602082019050919050565b6000612bfe602f83613118565b9150612c09826137f2565b604082019050919050565b6000612c21602183613118565b9150612c2c82613841565b604082019050919050565b6000612c44602483613118565b9150612c4f82613890565b604082019050919050565b6000612c67603183613118565b9150612c72826138df565b604082019050919050565b606082016000820151612c936000850182612cbf565b506020820151612ca660208501826128ed565b506040820151612cb96040850182612cbf565b50505050565b612cc88161326b565b82525050565b612cd78161326b565b82525050565b6000612ce982856129f9565b9150612cf582846129f9565b91508190509392505050565b6000602082019050612d16600083018461290b565b92915050565b6000608082019050612d31600083018761290b565b612d3e602083018661290b565b612d4b6040830185612cce565b8181036060830152612d5d8184612987565b905095945050505050565b6000604082019050612d7d600083018561290b565b612d8a6020830184612cce565b9392505050565b60006020820190508181036000830152612dab818461291a565b905092915050565b6000602082019050612dc86000830184612978565b92915050565b60006020820190508181036000830152612de881846129c0565b905092915050565b60006020820190508181036000830152612e0981612a2a565b9050919050565b60006020820190508181036000830152612e2981612a4d565b9050919050565b60006020820190508181036000830152612e4981612a70565b9050919050565b60006020820190508181036000830152612e6981612a93565b9050919050565b60006020820190508181036000830152612e8981612ab6565b9050919050565b60006020820190508181036000830152612ea981612ad9565b9050919050565b60006020820190508181036000830152612ec981612afc565b9050919050565b60006020820190508181036000830152612ee981612b1f565b9050919050565b60006020820190508181036000830152612f0981612b42565b9050919050565b60006020820190508181036000830152612f2981612b65565b9050919050565b60006020820190508181036000830152612f4981612b88565b9050919050565b60006020820190508181036000830152612f6981612bab565b9050919050565b60006020820190508181036000830152612f8981612bce565b9050919050565b60006020820190508181036000830152612fa981612bf1565b9050919050565b60006020820190508181036000830152612fc981612c14565b9050919050565b60006020820190508181036000830152612fe981612c37565b9050919050565b6000602082019050818103600083015261300981612c5a565b9050919050565b60006020820190506130256000830184612cce565b92915050565b60006060820190506130406000830186612cce565b61304d60208301856128fc565b61305a6040830184612cce565b949350505050565b600061306c61307d565b905061307882826132e9565b919050565b6000604051905090565b600067ffffffffffffffff8211156130a2576130a1613421565b5b6130ab82613450565b9050602081019050919050565b6000819050602082019050919050565b600081519050919050565b600081519050919050565b600081519050919050565b6000602082019050919050565b600082825260208201905092915050565b600082825260208201905092915050565b600082825260208201905092915050565b600081905092915050565b600061313f8261326b565b915061314a8361326b565b9250827fffffffffffffffffffffffffffffffffffffffffffffffffffffffffffffffff0382111561317f5761317e613394565b5b828201905092915050565b60006131958261326b565b91506131a08361326b565b9250826131b0576131af6133c3565b5b828204905092915050565b60006131c68261326b565b91506131d18361326b565b9250828210156131e4576131e3613394565b5b828203905092915050565b60006131fa8261324b565b9050919050565b600061320c8261324b565b9050919050565b60008115159050919050565b60007fffffffff0000000000000000000000000000000000000000000000000000000082169050919050565b600073ffffffffffffffffffffffffffffffffffffffff82169050919050565b6000819050919050565b82818337600083830152505050565b60005b838110156132a2578082015181840152602081019050613287565b838111156132b1576000848401525b50505050565b600060028204905060018216806132cf57607f821691505b602082108114156132e3576132e26133f2565b5b50919050565b6132f282613450565b810181811067ffffffffffffffff8211171561331157613310613421565b5b80604052505050565b60006133258261326b565b91507fffffffffffffffffffffffffffffffffffffffffffffffffffffffffffffffff82141561335857613357613394565b5b600182019050919050565b600061336e8261326b565b91506133798361326b565b925082613389576133886133c3565b5b828206905092915050565b7f4e487b7100000000000000000000000000000000000000000000000000000000600052601160045260246000fd5b7f4e487b7100000000000000000000000000000000000000000000000000000000600052601260045260246000fd5b7f4e487b7100000000000000000000000000000000000000000000000000000000600052602260045260246000fd5b7f4e487b7100000000000000000000000000000000000000000000000000000000600052604160045260246000fd5b6000601f19601f8301169050919050565b7f5072696365206d7573742062652067726561746572207468616e207a65726f00600082015250565b7f4552433732313a207472616e7366657220746f206e6f6e20455243373231526560008201527f63656976657220696d706c656d656e7465720000000000000000000000000000602082015250565b7f4f776e61626c653a206e6577206f776e657220697320746865207a65726f206160008201527f6464726573730000000000000000000000000000000000000000000000000000602082015250565b7f4552433732313a207472616e736665722066726f6d20696e636f72726563742060008201527f6f776e6572000000000000000000000000000000000000000000000000000000602082015250565b7f4552433732313a207472616e7366657220746f20746865207a65726f2061646460008201527f7265737300000000000000000000000000000000000000000000000000000000602082015250565b7f4552433732313a20617070726f766520746f2063616c6c657200000000000000600082015250565b7f4552433732313a206f70657261746f7220717565727920666f72206e6f6e657860008201527f697374656e7420746f6b656e0000000000000000000000000000000000000000602082015250565b7f4552433732313a20617070726f76652063616c6c6572206973206e6f74206f7760008201527f6e6572206e6f7220617070726f76656420666f7220616c6c0000000000000000602082015250565b7f4552433732313a2062616c616e636520717565727920666f7220746865207a6560008201527f726f206164647265737300000000000000000000000000000000000000000000602082015250565b7f4552433732313a206f776e657220717565727920666f72206e6f6e657869737460008201527f656e7420746f6b656e0000000000000000000000000000000000000000000000602082015250565b7f506c656173652073656e64207468652061736b696e6720707269636520696e2060008201527f6f7264657220746f20636f6d706c657465207468652070757263686173650000602082015250565b7f4552433732313a20617070726f76656420717565727920666f72206e6f6e657860008201527f697374656e7420746f6b656e0000000000000000000000000000000000000000602082015250565b7f4f776e61626c653a2063616c6c6572206973206e6f7420746865206f776e6572600082015250565b7f4552433732314d657461646174613a2055524920717565727920666f72206e6f60008201527f6e6578697374656e7420746f6b656e0000000000000000000000000000000000602082015250565b7f4552433732313a20617070726f76616c20746f2063757272656e74206f776e6560008201527f7200000000000000000000000000000000000000000000000000000000000000602082015250565b7f5072696365206d75737420626520657175616c20746f206c697374696e67207060008201527f7269636500000000000000000000000000000000000000000000000000000000602082015250565b7f4552433732313a207472616e736665722063616c6c6572206973206e6f74206f60008201527f776e6572206e6f7220617070726f766564000000000000000000000000000000602082015250565b613937816131ef565b811461394257600080fd5b50565b61394e81613213565b811461395957600080fd5b50565b6139658161321f565b811461397057600080fd5b50565b61397c8161326b565b811461398757600080fd5b5056fea2646970667358221220c033215b114ba1f66fd9bbbe51936cda6006562819ee2511313b0099a10b2ed164736f6c6343000804003368747470733a2f2f6261667962656964686a6a626a6f6e7971636168757a6c707437737a6e6d683478726c62737061336773746f70356f34376c3667736961666665652e697066732e6e667473746f726167652e6c696e6b2f",
  "linkReferences": {},
  "deployedLinkReferences": {}
}