{
  "_format": "hh-sol-artifact-1",
  "contractName": "MusicNFTMarketplace",
  "sourceName": "src/backend/contracts/MusicNFTMarketplace.sol",
  "abi": [
    {
      "inputs": [
        {
          "internalType": "string",
          "name": "_URI",
          "type": "string"
        },
        {
          "internalType": "uint256",
          "name": "_royaltyFee",
          "type": "uint256"
        },
        {
          "internalType": "address",
          "name": "_artist",
          "type": "address"
        },
        {
          "internalType": "uint256[]",
          "name": "_prices",
          "type": "uint256[]"
        }
      ],
      "stateMutability": "payable",
      "type": "constructor"
    },
    {
      "anonymous": false,
      "inputs": [
        {
          "indexed": true,
          "internalType": "address",
          "name": "owner",
          "type": "address"
        },
        {
          "indexed": true,
          "internalType": "address",
          "name": "approved",
          "type": "address"
        },
        {
          "indexed": true,
          "internalType": "uint256",
          "name": "tokenId",
          "type": "uint256"
        }
      ],
      "name": "Approval",
      "type": "event"
    },
    {
      "anonymous": false,
      "inputs": [
        {
          "indexed": true,
          "internalType": "address",
          "name": "owner",
          "type": "address"
        },
        {
          "indexed": true,
          "internalType": "address",
          "name": "operator",
          "type": "address"
        },
        {
          "indexed": false,
          "internalType": "bool",
          "name": "approved",
          "type": "bool"
        }
      ],
      "name": "ApprovalForAll",
      "type": "event"
    },
    {
      "anonymous": false,
      "inputs": [
        {
          "indexed": true,
          "internalType": "uint256",
          "name": "tokenId",
          "type": "uint256"
        },
        {
          "indexed": true,
          "internalType": "address",
          "name": "seller",
          "type": "address"
        },
        {
          "indexed": false,
          "internalType": "address",
          "name": "buyer",
          "type": "address"
        },
        {
          "indexed": false,
          "internalType": "uint256",
          "name": "price",
          "type": "uint256"
        }
      ],
      "name": "MarketItemBought",
      "type": "event"
    },
    {
      "anonymous": false,
      "inputs": [
        {
          "indexed": true,
          "internalType": "uint256",
          "name": "tokenId",
          "type": "uint256"
        },
        {
          "indexed": true,
          "internalType": "address",
          "name": "seller",
          "type": "address"
        },
        {
          "indexed": false,
          "internalType": "uint256",
          "name": "price",
          "type": "uint256"
        }
      ],
      "name": "MarketItemRelisted",
      "type": "event"
    },
    {
      "anonymous": false,
      "inputs": [
        {
          "indexed": true,
          "internalType": "address",
          "name": "previousOwner",
          "type": "address"
        },
        {
          "indexed": true,
          "internalType": "address",
          "name": "newOwner",
          "type": "address"
        }
      ],
      "name": "OwnershipTransferred",
      "type": "event"
    },
    {
      "anonymous": false,
      "inputs": [
        {
          "indexed": true,
          "internalType": "address",
          "name": "from",
          "type": "address"
        },
        {
          "indexed": true,
          "internalType": "address",
          "name": "to",
          "type": "address"
        },
        {
          "indexed": true,
          "internalType": "uint256",
          "name": "tokenId",
          "type": "uint256"
        }
      ],
      "name": "Transfer",
      "type": "event"
    },
    {
      "inputs": [],
      "name": "_tokenIds",
      "outputs": [
        {
          "internalType": "uint256",
          "name": "",
          "type": "uint256"
        }
      ],
      "stateMutability": "view",
      "type": "function"
    },
    {
      "inputs": [
        {
          "internalType": "address",
          "name": "to",
          "type": "address"
        },
        {
          "internalType": "uint256",
          "name": "tokenId",
          "type": "uint256"
        }
      ],
      "name": "approve",
      "outputs": [],
      "stateMutability": "nonpayable",
      "type": "function"
    },
    {
      "inputs": [],
      "name": "artist",
      "outputs": [
        {
          "internalType": "address",
          "name": "",
          "type": "address"
        }
      ],
      "stateMutability": "view",
      "type": "function"
    },
    {
      "inputs": [
        {
          "internalType": "address",
          "name": "owner",
          "type": "address"
        }
      ],
      "name": "balanceOf",
      "outputs": [
        {
          "internalType": "uint256",
          "name": "",
          "type": "uint256"
        }
      ],
      "stateMutability": "view",
      "type": "function"
    },
    {
      "inputs": [],
      "name": "baseExtension",
      "outputs": [
        {
          "internalType": "string",
          "name": "",
          "type": "string"
        }
      ],
      "stateMutability": "view",
      "type": "function"
    },
    {
      "inputs": [],
      "name": "baseURI",
      "outputs": [
        {
          "internalType": "string",
          "name": "",
          "type": "string"
        }
      ],
      "stateMutability": "view",
      "type": "function"
    },
    {
      "inputs": [
        {
          "internalType": "uint256",
          "name": "_tokenId",
          "type": "uint256"
        }
      ],
      "name": "buyToken",
      "outputs": [],
      "stateMutability": "payable",
      "type": "function"
    },
    {
      "inputs": [],
      "name": "getAllUnsoldTokens",
      "outputs": [
        {
          "components": [
            {
              "internalType": "uint256",
              "name": "tokenId",
              "type": "uint256"
            },
            {
              "internalType": "address payable",
              "name": "seller",
              "type": "address"
            },
            {
              "internalType": "uint256",
              "name": "price",
              "type": "uint256"
            }
          ],
          "internalType": "struct MusicNFTMarketplace.MarketItem[]",
          "name": "",
          "type": "tuple[]"
        }
      ],
      "stateMutability": "view",
      "type": "function"
    },
    {
      "inputs": [
        {
          "internalType": "uint256",
          "name": "tokenId",
          "type": "uint256"
        }
      ],
      "name": "getApproved",
      "outputs": [
        {
          "internalType": "address",
          "name": "",
          "type": "address"
        }
      ],
      "stateMutability": "view",
      "type": "function"
    },
    {
      "inputs": [],
      "name": "getMyTokens",
      "outputs": [
        {
          "components": [
            {
              "internalType": "uint256",
              "name": "tokenId",
              "type": "uint256"
            },
            {
              "internalType": "address payable",
              "name": "seller",
              "type": "address"
            },
            {
              "internalType": "uint256",
              "name": "price",
              "type": "uint256"
            }
          ],
          "internalType": "struct MusicNFTMarketplace.MarketItem[]",
          "name": "",
          "type": "tuple[]"
        }
      ],
      "stateMutability": "view",
      "type": "function"
    },
    {
      "inputs": [
        {
          "internalType": "address",
          "name": "owner",
          "type": "address"
        },
        {
          "internalType": "address",
          "name": "operator",
          "type": "address"
        }
      ],
      "name": "isApprovedForAll",
      "outputs": [
        {
          "internalType": "bool",
          "name": "",
          "type": "bool"
        }
      ],
      "stateMutability": "view",
      "type": "function"
    },
    {
      "inputs": [
        {
          "internalType": "uint256",
          "name": "",
          "type": "uint256"
        }
      ],
      "name": "marketItems",
      "outputs": [
        {
          "internalType": "uint256",
          "name": "tokenId",
          "type": "uint256"
        },
        {
          "internalType": "address payable",
          "name": "seller",
          "type": "address"
        },
        {
          "internalType": "uint256",
          "name": "price",
          "type": "uint256"
        }
      ],
      "stateMutability": "view",
      "type": "function"
    },
    {
      "inputs": [],
      "name": "maxSupply",
      "outputs": [
        {
          "internalType": "uint256",
          "name": "",
          "type": "uint256"
        }
      ],
      "stateMutability": "view",
      "type": "function"
    },
    {
      "inputs": [],
      "name": "name",
      "outputs": [
        {
          "internalType": "string",
          "name": "",
          "type": "string"
        }
      ],
      "stateMutability": "view",
      "type": "function"
    },
    {
      "inputs": [],
      "name": "owner",
      "outputs": [
        {
          "internalType": "address",
          "name": "",
          "type": "address"
        }
      ],
      "stateMutability": "view",
      "type": "function"
    },
    {
      "inputs": [
        {
          "internalType": "uint256",
          "name": "tokenId",
          "type": "uint256"
        }
      ],
      "name": "ownerOf",
      "outputs": [
        {
          "internalType": "address",
          "name": "",
          "type": "address"
        }
      ],
      "stateMutability": "view",
      "type": "function"
    },
    {
      "inputs": [],
      "name": "renounceOwnership",
      "outputs": [],
      "stateMutability": "nonpayable",
      "type": "function"
    },
    {
      "inputs": [
        {
          "internalType": "uint256",
          "name": "_tokenId",
          "type": "uint256"
        },
        {
          "internalType": "uint256",
          "name": "price",
          "type": "uint256"
        }
      ],
      "name": "resellToken",
      "outputs": [],
      "stateMutability": "payable",
      "type": "function"
    },
    {
      "inputs": [],
      "name": "royaltyFee",
      "outputs": [
        {
          "internalType": "uint256",
          "name": "",
          "type": "uint256"
        }
      ],
      "stateMutability": "view",
      "type": "function"
    },
    {
      "inputs": [
        {
          "internalType": "address",
          "name": "from",
          "type": "address"
        },
        {
          "internalType": "address",
          "name": "to",
          "type": "address"
        },
        {
          "internalType": "uint256",
          "name": "tokenId",
          "type": "uint256"
        }
      ],
      "name": "safeTransferFrom",
      "outputs": [],
      "stateMutability": "nonpayable",
      "type": "function"
    },
    {
      "inputs": [
        {
          "internalType": "address",
          "name": "from",
          "type": "address"
        },
        {
          "internalType": "address",
          "name": "to",
          "type": "address"
        },
        {
          "internalType": "uint256",
          "name": "tokenId",
          "type": "uint256"
        },
        {
          "internalType": "bytes",
          "name": "_data",
          "type": "bytes"
        }
      ],
      "name": "safeTransferFrom",
      "outputs": [],
      "stateMutability": "nonpayable",
      "type": "function"
    },
    {
      "inputs": [
        {
          "internalType": "address",
          "name": "operator",
          "type": "address"
        },
        {
          "internalType": "bool",
          "name": "approved",
          "type": "bool"
        }
      ],
      "name": "setApprovalForAll",
      "outputs": [],
      "stateMutability": "nonpayable",
      "type": "function"
    },
    {
      "inputs": [
        {
          "internalType": "bytes4",
          "name": "interfaceId",
          "type": "bytes4"
        }
      ],
      "name": "supportsInterface",
      "outputs": [
        {
          "internalType": "bool",
          "name": "",
          "type": "bool"
        }
      ],
      "stateMutability": "view",
      "type": "function"
    },
    {
      "inputs": [],
      "name": "symbol",
      "outputs": [
        {
          "internalType": "string",
          "name": "",
          "type": "string"
        }
      ],
      "stateMutability": "view",
      "type": "function"
    },
    {
      "inputs": [
        {
          "internalType": "uint256",
          "name": "tokenId",
          "type": "uint256"
        }
      ],
      "name": "tokenURI",
      "outputs": [
        {
          "internalType": "string",
          "name": "",
          "type": "string"
        }
      ],
      "stateMutability": "view",
      "type": "function"
    },
    {
      "inputs": [
        {
          "internalType": "address",
          "name": "from",
          "type": "address"
        },
        {
          "internalType": "address",
          "name": "to",
          "type": "address"
        },
        {
          "internalType": "uint256",
          "name": "tokenId",
          "type": "uint256"
        }
      ],
      "name": "transferFrom",
      "outputs": [],
      "stateMutability": "nonpayable",
      "type": "function"
    },
    {
      "inputs": [
        {
          "internalType": "address",
          "name": "newOwner",
          "type": "address"
        }
      ],
      "name": "transferOwnership",
      "outputs": [],
      "stateMutability": "nonpayable",
      "type": "function"
    },
    {
      "inputs": [
        {
          "internalType": "uint256",
          "name": "_royaltyFee",
          "type": "uint256"
        }
      ],
      "name": "updateRoyaltyFee",
      "outputs": [],
      "stateMutability": "payable",
      "type": "function"
    }
  ],
  "bytecode": "0x60a06040526040518060400160405280600581526020017f2e6a736f6e000000000000000000000000000000000000000000000000000000815250600990805190602001906200005192919062000703565b5060405162004984380380620049848339818101604052810190620000779190620008f5565b6040518060400160405280600681526020017f44417070466900000000000000000000000000000000000000000000000000008152506040518060400160405280600481526020017f44415050000000000000000000000000000000000000000000000000000000008152508160009080519060200190620000fb92919062000703565b5080600190805190602001906200011492919062000703565b505050620001376200012b620003c560201b60201c565b620003cd60201b60201c565b3483825162000147919062000bb3565b11156200018b576040517f08c379a0000000000000000000000000000000000000000000000000000000008152600401620001829062000a73565b60405180910390fd5b8360089080519060200190620001a392919062000703565b5082600b8190555081600a60006101000a81548173ffffffffffffffffffffffffffffffffffffffff021916908373ffffffffffffffffffffffffffffffffffffffff16021790555080516080818152505060005b81518160ff161015620003ba576000828260ff168151811062000244577f4e487b7100000000000000000000000000000000000000000000000000000000600052603260045260246000fd5b6020026020010151116200028f576040517f08c379a0000000000000000000000000000000000000000000000000000000008152600401620002869062000a95565b60405180910390fd5b620002a4308260ff166200049360201b60201c565b600c60405180606001604052808360ff1681526020013373ffffffffffffffffffffffffffffffffffffffff168152602001848460ff168151811062000313577f4e487b7100000000000000000000000000000000000000000000000000000000600052603260045260246000fd5b602002602001015181525090806001815401808255809150506001900390600052602060002090600302016000909190919091506000820151816000015560208201518160010160006101000a81548173ffffffffffffffffffffffffffffffffffffffff021916908373ffffffffffffffffffffffffffffffffffffffff1602179055506040820151816002015550508080620003b19062000d01565b915050620001f8565b505050505062000ef2565b600033905090565b6000600660009054906101000a900473ffffffffffffffffffffffffffffffffffffffff16905081600660006101000a81548173ffffffffffffffffffffffffffffffffffffffff021916908373ffffffffffffffffffffffffffffffffffffffff1602179055508173ffffffffffffffffffffffffffffffffffffffff168173ffffffffffffffffffffffffffffffffffffffff167f8be0079c531659141344cd1fd0a4f28419497f9722a3daafe3b4186f6b6457e060405160405180910390a35050565b600073ffffffffffffffffffffffffffffffffffffffff168273ffffffffffffffffffffffffffffffffffffffff16141562000506576040517f08c379a0000000000000000000000000000000000000000000000000000000008152600401620004fd9062000a51565b60405180910390fd5b62000517816200068d60201b60201c565b156200055a576040517f08c379a0000000000000000000000000000000000000000000000000000000008152600401620005519062000a2f565b60405180910390fd5b6200056e60008383620006f960201b60201c565b6001600360008473ffffffffffffffffffffffffffffffffffffffff1673ffffffffffffffffffffffffffffffffffffffff1681526020019081526020016000206000828254620005c0919062000b56565b92505081905550816002600083815260200190815260200160002060006101000a81548173ffffffffffffffffffffffffffffffffffffffff021916908373ffffffffffffffffffffffffffffffffffffffff160217905550808273ffffffffffffffffffffffffffffffffffffffff16600073ffffffffffffffffffffffffffffffffffffffff167fddf252ad1be2c89b69c2b068fc378daa952ba7f163c4a11628f55a4df523b3ef60405160405180910390a46200068960008383620006fe60201b60201c565b5050565b60008073ffffffffffffffffffffffffffffffffffffffff166002600084815260200190815260200160002060009054906101000a900473ffffffffffffffffffffffffffffffffffffffff1673ffffffffffffffffffffffffffffffffffffffff1614159050919050565b505050565b505050565b828054620007119062000c95565b90600052602060002090601f01602090048101928262000735576000855562000781565b82601f106200075057805160ff191683800117855562000781565b8280016001018555821562000781579182015b828111156200078057825182559160200191906001019062000763565b5b50905062000790919062000794565b5090565b5b80821115620007af57600081600090555060010162000795565b5090565b6000620007ca620007c48462000ae0565b62000ab7565b90508083825260208201905082856020860282011115620007ea57600080fd5b60005b858110156200081e5781620008038882620008de565b845260208401935060208301925050600181019050620007ed565b5050509392505050565b60006200083f620008398462000b0f565b62000ab7565b9050828152602081018484840111156200085857600080fd5b6200086584828562000c5f565b509392505050565b6000815190506200087e8162000ebe565b92915050565b600082601f8301126200089657600080fd5b8151620008a8848260208601620007b3565b91505092915050565b600082601f830112620008c357600080fd5b8151620008d584826020860162000828565b91505092915050565b600081519050620008ef8162000ed8565b92915050565b600080600080608085870312156200090c57600080fd5b600085015167ffffffffffffffff8111156200092757600080fd5b6200093587828801620008b1565b94505060206200094887828801620008de565b93505060406200095b878288016200086d565b925050606085015167ffffffffffffffff8111156200097957600080fd5b620009878782880162000884565b91505092959194509250565b6000620009a2601c8362000b45565b9150620009af8262000dce565b602082019050919050565b6000620009c960208362000b45565b9150620009d68262000df7565b602082019050919050565b6000620009f060468362000b45565b9150620009fd8262000e20565b606082019050919050565b600062000a17601c8362000b45565b915062000a248262000e95565b602082019050919050565b6000602082019050818103600083015262000a4a8162000993565b9050919050565b6000602082019050818103600083015262000a6c81620009ba565b9050919050565b6000602082019050818103600083015262000a8e81620009e1565b9050919050565b6000602082019050818103600083015262000ab08162000a08565b9050919050565b600062000ac362000ad6565b905062000ad1828262000ccb565b919050565b6000604051905090565b600067ffffffffffffffff82111562000afe5762000afd62000d8e565b5b602082029050602081019050919050565b600067ffffffffffffffff82111562000b2d5762000b2c62000d8e565b5b62000b388262000dbd565b9050602081019050919050565b600082825260208201905092915050565b600062000b638262000c48565b915062000b708362000c48565b9250827fffffffffffffffffffffffffffffffffffffffffffffffffffffffffffffffff0382111562000ba85762000ba762000d30565b5b828201905092915050565b600062000bc08262000c48565b915062000bcd8362000c48565b9250817fffffffffffffffffffffffffffffffffffffffffffffffffffffffffffffffff048311821515161562000c095762000c0862000d30565b5b828202905092915050565b600062000c218262000c28565b9050919050565b600073ffffffffffffffffffffffffffffffffffffffff82169050919050565b6000819050919050565b600060ff82169050919050565b60005b8381101562000c7f57808201518184015260208101905062000c62565b8381111562000c8f576000848401525b50505050565b6000600282049050600182168062000cae57607f821691505b6020821081141562000cc55762000cc462000d5f565b5b50919050565b62000cd68262000dbd565b810181811067ffffffffffffffff8211171562000cf85762000cf762000d8e565b5b80604052505050565b600062000d0e8262000c52565b915060ff82141562000d255762000d2462000d30565b5b600182019050919050565b7f4e487b7100000000000000000000000000000000000000000000000000000000600052601160045260246000fd5b7f4e487b7100000000000000000000000000000000000000000000000000000000600052602260045260246000fd5b7f4e487b7100000000000000000000000000000000000000000000000000000000600052604160045260246000fd5b6000601f19601f8301169050919050565b7f4552433732313a20746f6b656e20616c7265616479206d696e74656400000000600082015250565b7f4552433732313a206d696e7420746f20746865207a65726f2061646472657373600082015250565b7f4465706c6f796572206d7573742070617920726f79616c74792066656520666f60008201527f72206561636820746f6b656e206c6973746564206f6e20746865206d61726b6560208201527f74706c6163650000000000000000000000000000000000000000000000000000604082015250565b7f5072696365206d7573742062652067726561746572207468616e203000000000600082015250565b62000ec98162000c14565b811462000ed557600080fd5b50565b62000ee38162000c48565b811462000eef57600080fd5b50565b608051613a7662000f0e600039600061174a0152613a766000f3fe6080604052600436106101b75760003560e01c8063715018a6116100ec578063b8997a971161008a578063d5abeb0111610064578063d5abeb01146105f6578063e219fc7514610621578063e985e9c51461063d578063f2fde38b1461067a576101b7565b8063b8997a9714610563578063c66828621461058e578063c87b56dd146105b9576101b7565b806395d89b41116100c657806395d89b41146104bb578063a22cb465146104e6578063aa46a4001461050f578063b88d4fde1461053a576101b7565b8063715018a61461044e578063767dd076146104655780638da5cb5b14610490576101b7565b806343bc1612116101595780635b3b136a116101335780635b3b136a1461037e5780636352211e146103a95780636c0360eb146103e657806370a0823114610411576101b7565b806343bc1612146102f85780634e83be471461032357806351f28e141461033f576101b7565b8063095ea7b311610195578063095ea7b31461026157806323b872dd1461028a5780632d296bf1146102b357806342842e0e146102cf576101b7565b806301ffc9a7146101bc57806306fdde03146101f9578063081812fc14610224575b600080fd5b3480156101c857600080fd5b506101e360048036038101906101de91906128d4565b6106a3565b6040516101f09190612e69565b60405180910390f35b34801561020557600080fd5b5061020e610785565b60405161021b9190612e84565b60405180910390f35b34801561023057600080fd5b5061024b60048036038101906102469190612926565b610817565b6040516102589190612db7565b60405180910390f35b34801561026d57600080fd5b5061028860048036038101906102839190612898565b61089c565b005b34801561029657600080fd5b506102b160048036038101906102ac9190612792565b6109b4565b005b6102cd60048036038101906102c89190612926565b610a14565b005b3480156102db57600080fd5b506102f660048036038101906102f19190612792565b610cb4565b005b34801561030457600080fd5b5061030d610cd4565b60405161031a9190612db7565b60405180910390f35b61033d60048036038101906103389190612926565b610cfa565b005b34801561034b57600080fd5b5061036660048036038101906103619190612926565b610d80565b604051610375939291906130e1565b60405180910390f35b34801561038a57600080fd5b50610393610dda565b6040516103a09190612e47565b60405180910390f35b3480156103b557600080fd5b506103d060048036038101906103cb9190612926565b610fe5565b6040516103dd9190612db7565b60405180910390f35b3480156103f257600080fd5b506103fb611097565b6040516104089190612e84565b60405180910390f35b34801561041d57600080fd5b506104386004803603810190610433919061272d565b611125565b60405161044591906130c6565b60405180910390f35b34801561045a57600080fd5b506104636111dd565b005b34801561047157600080fd5b5061047a611265565b6040516104879190612e47565b60405180910390f35b34801561049c57600080fd5b506104a56114d3565b6040516104b29190612db7565b60405180910390f35b3480156104c757600080fd5b506104d06114fd565b6040516104dd9190612e84565b60405180910390f35b3480156104f257600080fd5b5061050d6004803603810190610508919061285c565b61158f565b005b34801561051b57600080fd5b506105246115a5565b60405161053191906130c6565b60405180910390f35b34801561054657600080fd5b50610561600480360381019061055c91906127e1565b6115ab565b005b34801561056f57600080fd5b5061057861160d565b60405161058591906130c6565b60405180910390f35b34801561059a57600080fd5b506105a3611613565b6040516105b09190612e84565b60405180910390f35b3480156105c557600080fd5b506105e060048036038101906105db9190612926565b6116a1565b6040516105ed9190612e84565b60405180910390f35b34801561060257600080fd5b5061060b611748565b60405161061891906130c6565b60405180910390f35b61063b6004803603810190610636919061294f565b61176c565b005b34801561064957600080fd5b50610664600480360381019061065f9190612756565b61192b565b6040516106719190612e69565b60405180910390f35b34801561068657600080fd5b506106a1600480360381019061069c919061272d565b6119bf565b005b60007f80ac58cd000000000000000000000000000000000000000000000000000000007bffffffffffffffffffffffffffffffffffffffffffffffffffffffff1916827bffffffffffffffffffffffffffffffffffffffffffffffffffffffff1916148061076e57507f5b5e139f000000000000000000000000000000000000000000000000000000007bffffffffffffffffffffffffffffffffffffffffffffffffffffffff1916827bffffffffffffffffffffffffffffffffffffffffffffffffffffffff1916145b8061077e575061077d82611ab7565b5b9050919050565b6060600080546107949061336d565b80601f01602080910402602001604051908101604052809291908181526020018280546107c09061336d565b801561080d5780601f106107e25761010080835404028352916020019161080d565b820191906000526020600020905b8154815290600101906020018083116107f057829003601f168201915b5050505050905090565b600061082282611b21565b610861576040517f08c379a000000000000000000000000000000000000000000000000000000000815260040161085890613006565b60405180910390fd5b6004600083815260200190815260200160002060009054906101000a900473ffffffffffffffffffffffffffffffffffffffff169050919050565b60006108a782610fe5565b90508073ffffffffffffffffffffffffffffffffffffffff168373ffffffffffffffffffffffffffffffffffffffff161415610918576040517f08c379a000000000000000000000000000000000000000000000000000000000815260040161090f90613066565b60405180910390fd5b8073ffffffffffffffffffffffffffffffffffffffff16610937611b8d565b73ffffffffffffffffffffffffffffffffffffffff161480610966575061096581610960611b8d565b61192b565b5b6109a5576040517f08c379a000000000000000000000000000000000000000000000000000000000815260040161099c90612f86565b60405180910390fd5b6109af8383611b95565b505050565b6109c56109bf611b8d565b82611c4e565b610a04576040517f08c379a00000000000000000000000000000000000000000000000000000000081526004016109fb906130a6565b60405180910390fd5b610a0f838383611d2c565b505050565b6000600c8281548110610a50577f4e487b7100000000000000000000000000000000000000000000000000000000600052603260045260246000fd5b90600052602060002090600302016002015490506000600c8381548110610aa0577f4e487b7100000000000000000000000000000000000000000000000000000000600052603260045260246000fd5b906000526020600020906003020160010160009054906101000a900473ffffffffffffffffffffffffffffffffffffffff169050813414610b16576040517f08c379a0000000000000000000000000000000000000000000000000000000008152600401610b0d90612fe6565b60405180910390fd5b6000600c8481548110610b52577f4e487b7100000000000000000000000000000000000000000000000000000000600052603260045260246000fd5b906000526020600020906003020160010160006101000a81548173ffffffffffffffffffffffffffffffffffffffff021916908373ffffffffffffffffffffffffffffffffffffffff160217905550610bac303385611d2c565b600a60009054906101000a900473ffffffffffffffffffffffffffffffffffffffff1673ffffffffffffffffffffffffffffffffffffffff166108fc600b549081150290604051600060405180830381858888f19350505050158015610c16573d6000803e3d6000fd5b508073ffffffffffffffffffffffffffffffffffffffff166108fc349081150290604051600060405180830381858888f19350505050158015610c5d573d6000803e3d6000fd5b508073ffffffffffffffffffffffffffffffffffffffff16837fd356b8423ef89ccba8e4f1dbeccc60b41825fd97d432f2e6a6dbd11ae6ecec113385604051610ca7929190612e1e565b60405180910390a3505050565b610ccf838383604051806020016040528060008152506115ab565b505050565b600a60009054906101000a900473ffffffffffffffffffffffffffffffffffffffff1681565b610d02611b8d565b73ffffffffffffffffffffffffffffffffffffffff16610d206114d3565b73ffffffffffffffffffffffffffffffffffffffff1614610d76576040517f08c379a0000000000000000000000000000000000000000000000000000000008152600401610d6d90613026565b60405180910390fd5b80600b8190555050565b600c8181548110610d9057600080fd5b90600052602060002090600302016000915090508060000154908060010160009054906101000a900473ffffffffffffffffffffffffffffffffffffffff16908060020154905083565b60606000610de733611125565b905060008167ffffffffffffffff811115610e2b577f4e487b7100000000000000000000000000000000000000000000000000000000600052604160045260246000fd5b604051908082528060200260200182016040528015610e6457816020015b610e51612625565b815260200190600190039081610e495790505b509050600080600090505b600c80549050811015610fdb573373ffffffffffffffffffffffffffffffffffffffff16610e9c82610fe5565b73ffffffffffffffffffffffffffffffffffffffff161415610fc857600c8181548110610ef2577f4e487b7100000000000000000000000000000000000000000000000000000000600052603260045260246000fd5b9060005260206000209060030201604051806060016040529081600082015481526020016001820160009054906101000a900473ffffffffffffffffffffffffffffffffffffffff1673ffffffffffffffffffffffffffffffffffffffff1673ffffffffffffffffffffffffffffffffffffffff168152602001600282015481525050838381518110610fae577f4e487b7100000000000000000000000000000000000000000000000000000000600052603260045260246000fd5b60200260200101819052508180610fc4906133d0565b9250505b8080610fd3906133d0565b915050610e6f565b5081935050505090565b6000806002600084815260200190815260200160002060009054906101000a900473ffffffffffffffffffffffffffffffffffffffff169050600073ffffffffffffffffffffffffffffffffffffffff168173ffffffffffffffffffffffffffffffffffffffff16141561108e576040517f08c379a000000000000000000000000000000000000000000000000000000000815260040161108590612fc6565b60405180910390fd5b80915050919050565b600880546110a49061336d565b80601f01602080910402602001604051908101604052809291908181526020018280546110d09061336d565b801561111d5780601f106110f25761010080835404028352916020019161111d565b820191906000526020600020905b81548152906001019060200180831161110057829003601f168201915b505050505081565b60008073ffffffffffffffffffffffffffffffffffffffff168273ffffffffffffffffffffffffffffffffffffffff161415611196576040517f08c379a000000000000000000000000000000000000000000000000000000000815260040161118d90612fa6565b60405180910390fd5b600360008373ffffffffffffffffffffffffffffffffffffffff1673ffffffffffffffffffffffffffffffffffffffff168152602001908152602001600020549050919050565b6111e5611b8d565b73ffffffffffffffffffffffffffffffffffffffff166112036114d3565b73ffffffffffffffffffffffffffffffffffffffff1614611259576040517f08c379a000000000000000000000000000000000000000000000000000000000815260040161125090613026565b60405180910390fd5b6112636000611f93565b565b6060600061127230611125565b905060008167ffffffffffffffff8111156112b6577f4e487b7100000000000000000000000000000000000000000000000000000000600052604160045260246000fd5b6040519080825280602002602001820160405280156112ef57816020015b6112dc612625565b8152602001906001900390816112d45790505b509050600080600090505b600c805490508110156114c957600073ffffffffffffffffffffffffffffffffffffffff16600c8281548110611359577f4e487b7100000000000000000000000000000000000000000000000000000000600052603260045260246000fd5b906000526020600020906003020160010160009054906101000a900473ffffffffffffffffffffffffffffffffffffffff1673ffffffffffffffffffffffffffffffffffffffff16146114b657600c81815481106113e0577f4e487b7100000000000000000000000000000000000000000000000000000000600052603260045260246000fd5b9060005260206000209060030201604051806060016040529081600082015481526020016001820160009054906101000a900473ffffffffffffffffffffffffffffffffffffffff1673ffffffffffffffffffffffffffffffffffffffff1673ffffffffffffffffffffffffffffffffffffffff16815260200160028201548152505083838151811061149c577f4e487b7100000000000000000000000000000000000000000000000000000000600052603260045260246000fd5b602002602001018190525081806114b2906133d0565b9250505b80806114c1906133d0565b9150506112fa565b5081935050505090565b6000600660009054906101000a900473ffffffffffffffffffffffffffffffffffffffff16905090565b60606001805461150c9061336d565b80601f01602080910402602001604051908101604052809291908181526020018280546115389061336d565b80156115855780601f1061155a57610100808354040283529160200191611585565b820191906000526020600020905b81548152906001019060200180831161156857829003601f168201915b5050505050905090565b6115a161159a611b8d565b8383612059565b5050565b60075481565b6115bc6115b6611b8d565b83611c4e565b6115fb576040517f08c379a00000000000000000000000000000000000000000000000000000000081526004016115f2906130a6565b60405180910390fd5b611607848484846121c6565b50505050565b600b5481565b600980546116209061336d565b80601f016020809104026020016040519081016040528092919081815260200182805461164c9061336d565b80156116995780601f1061166e57610100808354040283529160200191611699565b820191906000526020600020905b81548152906001019060200180831161167c57829003601f168201915b505050505081565b60606116ac82611b21565b6116eb576040517f08c379a00000000000000000000000000000000000000000000000000000000081526004016116e290613046565b60405180910390fd5b60006116f5612222565b905060008151116117155760405180602001604052806000815250611740565b8061171f846122b4565b604051602001611730929190612d93565b6040516020818303038152906040525b915050919050565b7f000000000000000000000000000000000000000000000000000000000000000081565b600b5434146117b0576040517f08c379a00000000000000000000000000000000000000000000000000000000081526004016117a790613086565b60405180910390fd5b600081116117f3576040517f08c379a00000000000000000000000000000000000000000000000000000000081526004016117ea90612ea6565b60405180910390fd5b80600c838154811061182e577f4e487b7100000000000000000000000000000000000000000000000000000000600052603260045260246000fd5b90600052602060002090600302016002018190555033600c838154811061187e577f4e487b7100000000000000000000000000000000000000000000000000000000600052603260045260246000fd5b906000526020600020906003020160010160006101000a81548173ffffffffffffffffffffffffffffffffffffffff021916908373ffffffffffffffffffffffffffffffffffffffff1602179055506118d8333084611d2c565b3373ffffffffffffffffffffffffffffffffffffffff16827fb2ba12d2566848b13548a3741edb565b69d3cbce7796959cd67431610207eb138360405161191f91906130c6565b60405180910390a35050565b6000600560008473ffffffffffffffffffffffffffffffffffffffff1673ffffffffffffffffffffffffffffffffffffffff16815260200190815260200160002060008373ffffffffffffffffffffffffffffffffffffffff1673ffffffffffffffffffffffffffffffffffffffff16815260200190815260200160002060009054906101000a900460ff16905092915050565b6119c7611b8d565b73ffffffffffffffffffffffffffffffffffffffff166119e56114d3565b73ffffffffffffffffffffffffffffffffffffffff1614611a3b576040517f08c379a0000000000000000000000000000000000000000000000000000000008152600401611a3290613026565b60405180910390fd5b600073ffffffffffffffffffffffffffffffffffffffff168173ffffffffffffffffffffffffffffffffffffffff161415611aab576040517f08c379a0000000000000000000000000000000000000000000000000000000008152600401611aa290612ee6565b60405180910390fd5b611ab481611f93565b50565b60007f01ffc9a7000000000000000000000000000000000000000000000000000000007bffffffffffffffffffffffffffffffffffffffffffffffffffffffff1916827bffffffffffffffffffffffffffffffffffffffffffffffffffffffff1916149050919050565b60008073ffffffffffffffffffffffffffffffffffffffff166002600084815260200190815260200160002060009054906101000a900473ffffffffffffffffffffffffffffffffffffffff1673ffffffffffffffffffffffffffffffffffffffff1614159050919050565b600033905090565b816004600083815260200190815260200160002060006101000a81548173ffffffffffffffffffffffffffffffffffffffff021916908373ffffffffffffffffffffffffffffffffffffffff160217905550808273ffffffffffffffffffffffffffffffffffffffff16611c0883610fe5565b73ffffffffffffffffffffffffffffffffffffffff167f8c5be1e5ebec7d5bd14f71427d1e84f3dd0314c0f7b2291e5b200ac8c7c3b92560405160405180910390a45050565b6000611c5982611b21565b611c98576040517f08c379a0000000000000000000000000000000000000000000000000000000008152600401611c8f90612f66565b60405180910390fd5b6000611ca383610fe5565b90508073ffffffffffffffffffffffffffffffffffffffff168473ffffffffffffffffffffffffffffffffffffffff161480611d1257508373ffffffffffffffffffffffffffffffffffffffff16611cfa84610817565b73ffffffffffffffffffffffffffffffffffffffff16145b80611d235750611d22818561192b565b5b91505092915050565b8273ffffffffffffffffffffffffffffffffffffffff16611d4c82610fe5565b73ffffffffffffffffffffffffffffffffffffffff1614611da2576040517f08c379a0000000000000000000000000000000000000000000000000000000008152600401611d9990612f06565b60405180910390fd5b600073ffffffffffffffffffffffffffffffffffffffff168273ffffffffffffffffffffffffffffffffffffffff161415611e12576040517f08c379a0000000000000000000000000000000000000000000000000000000008152600401611e0990612f26565b60405180910390fd5b611e1d838383612461565b611e28600082611b95565b6001600360008573ffffffffffffffffffffffffffffffffffffffff1673ffffffffffffffffffffffffffffffffffffffff1681526020019081526020016000206000828254611e789190613271565b925050819055506001600360008473ffffffffffffffffffffffffffffffffffffffff1673ffffffffffffffffffffffffffffffffffffffff1681526020019081526020016000206000828254611ecf91906131ea565b92505081905550816002600083815260200190815260200160002060006101000a81548173ffffffffffffffffffffffffffffffffffffffff021916908373ffffffffffffffffffffffffffffffffffffffff160217905550808273ffffffffffffffffffffffffffffffffffffffff168473ffffffffffffffffffffffffffffffffffffffff167fddf252ad1be2c89b69c2b068fc378daa952ba7f163c4a11628f55a4df523b3ef60405160405180910390a4611f8e838383612466565b505050565b6000600660009054906101000a900473ffffffffffffffffffffffffffffffffffffffff16905081600660006101000a81548173ffffffffffffffffffffffffffffffffffffffff021916908373ffffffffffffffffffffffffffffffffffffffff1602179055508173ffffffffffffffffffffffffffffffffffffffff168173ffffffffffffffffffffffffffffffffffffffff167f8be0079c531659141344cd1fd0a4f28419497f9722a3daafe3b4186f6b6457e060405160405180910390a35050565b8173ffffffffffffffffffffffffffffffffffffffff168373ffffffffffffffffffffffffffffffffffffffff1614156120c8576040517f08c379a00000000000000000000000000000000000000000000000000000000081526004016120bf90612f46565b60405180910390fd5b80600560008573ffffffffffffffffffffffffffffffffffffffff1673ffffffffffffffffffffffffffffffffffffffff16815260200190815260200160002060008473ffffffffffffffffffffffffffffffffffffffff1673ffffffffffffffffffffffffffffffffffffffff16815260200190815260200160002060006101000a81548160ff0219169083151502179055508173ffffffffffffffffffffffffffffffffffffffff168373ffffffffffffffffffffffffffffffffffffffff167f17307eab39ab6107e8899845ad3d59bd9653f200f220920489ca2b5937696c31836040516121b99190612e69565b60405180910390a3505050565b6121d1848484611d2c565b6121dd8484848461246b565b61221c576040517f08c379a000000000000000000000000000000000000000000000000000000000815260040161221390612ec6565b60405180910390fd5b50505050565b6060600880546122319061336d565b80601f016020809104026020016040519081016040528092919081815260200182805461225d9061336d565b80156122aa5780601f1061227f576101008083540402835291602001916122aa565b820191906000526020600020905b81548152906001019060200180831161228d57829003601f168201915b5050505050905090565b606060008214156122fc576040518060400160405280600181526020017f3000000000000000000000000000000000000000000000000000000000000000815250905061245c565b600082905060005b6000821461232e578080612317906133d0565b915050600a826123279190613240565b9150612304565b60008167ffffffffffffffff811115612370577f4e487b7100000000000000000000000000000000000000000000000000000000600052604160045260246000fd5b6040519080825280601f01601f1916602001820160405280156123a25781602001600182028036833780820191505090505b5090505b60008514612455576001826123bb9190613271565b9150600a856123ca9190613419565b60306123d691906131ea565b60f81b818381518110612412577f4e487b7100000000000000000000000000000000000000000000000000000000600052603260045260246000fd5b60200101907effffffffffffffffffffffffffffffffffffffffffffffffffffffffffffff1916908160001a905350600a8561244e9190613240565b94506123a6565b8093505050505b919050565b505050565b505050565b600061248c8473ffffffffffffffffffffffffffffffffffffffff16612602565b156125f5578373ffffffffffffffffffffffffffffffffffffffff1663150b7a026124b5611b8d565b8786866040518563ffffffff1660e01b81526004016124d79493929190612dd2565b602060405180830381600087803b1580156124f157600080fd5b505af192505050801561252257506040513d601f19601f8201168201806040525081019061251f91906128fd565b60015b6125a5573d8060008114612552576040519150601f19603f3d011682016040523d82523d6000602084013e612557565b606091505b5060008151141561259d576040517f08c379a000000000000000000000000000000000000000000000000000000000815260040161259490612ec6565b60405180910390fd5b805181602001fd5b63150b7a0260e01b7bffffffffffffffffffffffffffffffffffffffffffffffffffffffff1916817bffffffffffffffffffffffffffffffffffffffffffffffffffffffff1916149150506125fa565b600190505b949350505050565b6000808273ffffffffffffffffffffffffffffffffffffffff163b119050919050565b604051806060016040528060008152602001600073ffffffffffffffffffffffffffffffffffffffff168152602001600081525090565b600061266f61266a8461313d565b613118565b90508281526020810184848401111561268757600080fd5b61269284828561332b565b509392505050565b6000813590506126a9816139e4565b92915050565b6000813590506126be816139fb565b92915050565b6000813590506126d381613a12565b92915050565b6000815190506126e881613a12565b92915050565b600082601f8301126126ff57600080fd5b813561270f84826020860161265c565b91505092915050565b60008135905061272781613a29565b92915050565b60006020828403121561273f57600080fd5b600061274d8482850161269a565b91505092915050565b6000806040838503121561276957600080fd5b60006127778582860161269a565b92505060206127888582860161269a565b9150509250929050565b6000806000606084860312156127a757600080fd5b60006127b58682870161269a565b93505060206127c68682870161269a565b92505060406127d786828701612718565b9150509250925092565b600080600080608085870312156127f757600080fd5b60006128058782880161269a565b94505060206128168782880161269a565b935050604061282787828801612718565b925050606085013567ffffffffffffffff81111561284457600080fd5b612850878288016126ee565b91505092959194509250565b6000806040838503121561286f57600080fd5b600061287d8582860161269a565b925050602061288e858286016126af565b9150509250929050565b600080604083850312156128ab57600080fd5b60006128b98582860161269a565b92505060206128ca85828601612718565b9150509250929050565b6000602082840312156128e657600080fd5b60006128f4848285016126c4565b91505092915050565b60006020828403121561290f57600080fd5b600061291d848285016126d9565b91505092915050565b60006020828403121561293857600080fd5b600061294684828501612718565b91505092915050565b6000806040838503121561296257600080fd5b600061297085828601612718565b925050602061298185828601612718565b9150509250929050565b60006129978383612d33565b60608301905092915050565b6129ac816132b7565b82525050565b6129bb816132b7565b82525050565b6129ca816132a5565b82525050565b60006129db8261317e565b6129e581856131ac565b93506129f08361316e565b8060005b83811015612a21578151612a08888261298b565b9750612a138361319f565b9250506001810190506129f4565b5085935050505092915050565b612a37816132c9565b82525050565b6000612a4882613189565b612a5281856131bd565b9350612a6281856020860161333a565b612a6b81613506565b840191505092915050565b6000612a8182613194565b612a8b81856131ce565b9350612a9b81856020860161333a565b612aa481613506565b840191505092915050565b6000612aba82613194565b612ac481856131df565b9350612ad481856020860161333a565b80840191505092915050565b6000612aed601f836131ce565b9150612af882613517565b602082019050919050565b6000612b106032836131ce565b9150612b1b82613540565b604082019050919050565b6000612b336026836131ce565b9150612b3e8261358f565b604082019050919050565b6000612b566025836131ce565b9150612b61826135de565b604082019050919050565b6000612b796024836131ce565b9150612b848261362d565b604082019050919050565b6000612b9c6019836131ce565b9150612ba78261367c565b602082019050919050565b6000612bbf602c836131ce565b9150612bca826136a5565b604082019050919050565b6000612be26038836131ce565b9150612bed826136f4565b604082019050919050565b6000612c05602a836131ce565b9150612c1082613743565b604082019050919050565b6000612c286029836131ce565b9150612c3382613792565b604082019050919050565b6000612c4b603e836131ce565b9150612c56826137e1565b604082019050919050565b6000612c6e602c836131ce565b9150612c7982613830565b604082019050919050565b6000612c916020836131ce565b9150612c9c8261387f565b602082019050919050565b6000612cb4602f836131ce565b9150612cbf826138a8565b604082019050919050565b6000612cd76021836131ce565b9150612ce2826138f7565b604082019050919050565b6000612cfa6024836131ce565b9150612d0582613946565b604082019050919050565b6000612d1d6031836131ce565b9150612d2882613995565b604082019050919050565b606082016000820151612d496000850182612d75565b506020820151612d5c60208501826129a3565b506040820151612d6f6040850182612d75565b50505050565b612d7e81613321565b82525050565b612d8d81613321565b82525050565b6000612d9f8285612aaf565b9150612dab8284612aaf565b91508190509392505050565b6000602082019050612dcc60008301846129c1565b92915050565b6000608082019050612de760008301876129c1565b612df460208301866129c1565b612e016040830185612d84565b8181036060830152612e138184612a3d565b905095945050505050565b6000604082019050612e3360008301856129c1565b612e406020830184612d84565b9392505050565b60006020820190508181036000830152612e6181846129d0565b905092915050565b6000602082019050612e7e6000830184612a2e565b92915050565b60006020820190508181036000830152612e9e8184612a76565b905092915050565b60006020820190508181036000830152612ebf81612ae0565b9050919050565b60006020820190508181036000830152612edf81612b03565b9050919050565b60006020820190508181036000830152612eff81612b26565b9050919050565b60006020820190508181036000830152612f1f81612b49565b9050919050565b60006020820190508181036000830152612f3f81612b6c565b9050919050565b60006020820190508181036000830152612f5f81612b8f565b9050919050565b60006020820190508181036000830152612f7f81612bb2565b9050919050565b60006020820190508181036000830152612f9f81612bd5565b9050919050565b60006020820190508181036000830152612fbf81612bf8565b9050919050565b60006020820190508181036000830152612fdf81612c1b565b9050919050565b60006020820190508181036000830152612fff81612c3e565b9050919050565b6000602082019050818103600083015261301f81612c61565b9050919050565b6000602082019050818103600083015261303f81612c84565b9050919050565b6000602082019050818103600083015261305f81612ca7565b9050919050565b6000602082019050818103600083015261307f81612cca565b9050919050565b6000602082019050818103600083015261309f81612ced565b9050919050565b600060208201905081810360008301526130bf81612d10565b9050919050565b60006020820190506130db6000830184612d84565b92915050565b60006060820190506130f66000830186612d84565b61310360208301856129b2565b6131106040830184612d84565b949350505050565b6000613122613133565b905061312e828261339f565b919050565b6000604051905090565b600067ffffffffffffffff821115613158576131576134d7565b5b61316182613506565b9050602081019050919050565b6000819050602082019050919050565b600081519050919050565b600081519050919050565b600081519050919050565b6000602082019050919050565b600082825260208201905092915050565b600082825260208201905092915050565b600082825260208201905092915050565b600081905092915050565b60006131f582613321565b915061320083613321565b9250827fffffffffffffffffffffffffffffffffffffffffffffffffffffffffffffffff038211156132355761323461344a565b5b828201905092915050565b600061324b82613321565b915061325683613321565b92508261326657613265613479565b5b828204905092915050565b600061327c82613321565b915061328783613321565b92508282101561329a5761329961344a565b5b828203905092915050565b60006132b082613301565b9050919050565b60006132c282613301565b9050919050565b60008115159050919050565b60007fffffffff0000000000000000000000000000000000000000000000000000000082169050919050565b600073ffffffffffffffffffffffffffffffffffffffff82169050919050565b6000819050919050565b82818337600083830152505050565b60005b8381101561335857808201518184015260208101905061333d565b83811115613367576000848401525b50505050565b6000600282049050600182168061338557607f821691505b60208210811415613399576133986134a8565b5b50919050565b6133a882613506565b810181811067ffffffffffffffff821117156133c7576133c66134d7565b5b80604052505050565b60006133db82613321565b91507fffffffffffffffffffffffffffffffffffffffffffffffffffffffffffffffff82141561340e5761340d61344a565b5b600182019050919050565b600061342482613321565b915061342f83613321565b92508261343f5761343e613479565b5b828206905092915050565b7f4e487b7100000000000000000000000000000000000000000000000000000000600052601160045260246000fd5b7f4e487b7100000000000000000000000000000000000000000000000000000000600052601260045260246000fd5b7f4e487b7100000000000000000000000000000000000000000000000000000000600052602260045260246000fd5b7f4e487b7100000000000000000000000000000000000000000000000000000000600052604160045260246000fd5b6000601f19601f8301169050919050565b7f5072696365206d7573742062652067726561746572207468616e207a65726f00600082015250565b7f4552433732313a207472616e7366657220746f206e6f6e20455243373231526560008201527f63656976657220696d706c656d656e7465720000000000000000000000000000602082015250565b7f4f776e61626c653a206e6577206f776e657220697320746865207a65726f206160008201527f6464726573730000000000000000000000000000000000000000000000000000602082015250565b7f4552433732313a207472616e736665722066726f6d20696e636f72726563742060008201527f6f776e6572000000000000000000000000000000000000000000000000000000602082015250565b7f4552433732313a207472616e7366657220746f20746865207a65726f2061646460008201527f7265737300000000000000000000000000000000000000000000000000000000602082015250565b7f4552433732313a20617070726f766520746f2063616c6c657200000000000000600082015250565b7f4552433732313a206f70657261746f7220717565727920666f72206e6f6e657860008201527f697374656e7420746f6b656e0000000000000000000000000000000000000000602082015250565b7f4552433732313a20617070726f76652063616c6c6572206973206e6f74206f7760008201527f6e6572206e6f7220617070726f76656420666f7220616c6c0000000000000000602082015250565b7f4552433732313a2062616c616e636520717565727920666f7220746865207a6560008201527f726f206164647265737300000000000000000000000000000000000000000000602082015250565b7f4552433732313a206f776e657220717565727920666f72206e6f6e657869737460008201527f656e7420746f6b656e0000000000000000000000000000000000000000000000602082015250565b7f506c656173652073656e64207468652061736b696e6720707269636520696e2060008201527f6f7264657220746f20636f6d706c657465207468652070757263686173650000602082015250565b7f4552433732313a20617070726f76656420717565727920666f72206e6f6e657860008201527f697374656e7420746f6b656e0000000000000000000000000000000000000000602082015250565b7f4f776e61626c653a2063616c6c6572206973206e6f7420746865206f776e6572600082015250565b7f4552433732314d657461646174613a2055524920717565727920666f72206e6f60008201527f6e6578697374656e7420746f6b656e0000000000000000000000000000000000602082015250565b7f4552433732313a20617070726f76616c20746f2063757272656e74206f776e6560008201527f7200000000000000000000000000000000000000000000000000000000000000602082015250565b7f5072696365206d75737420626520657175616c20746f206c697374696e67207060008201527f7269636500000000000000000000000000000000000000000000000000000000602082015250565b7f4552433732313a207472616e736665722063616c6c6572206973206e6f74206f60008201527f776e6572206e6f7220617070726f766564000000000000000000000000000000602082015250565b6139ed816132a5565b81146139f857600080fd5b50565b613a04816132c9565b8114613a0f57600080fd5b50565b613a1b816132d5565b8114613a2657600080fd5b50565b613a3281613321565b8114613a3d57600080fd5b5056fea2646970667358221220c2e3cc599896eed9f709b5a77cfa4907646bd720fe5775b29442212bf062e0dd64736f6c63430008040033",
  "linkReferences": {},
  "deployedLinkReferences": {}
}