{
  "_format": "hh-sol-artifact-1",
  "contractName": "MusicNFTMarketplace",
  "sourceName": "src/backend/contracts/MusicNFTMarketplace.sol",
  "abi": [
    {
      "inputs": [
        {
          "internalType": "uint256",
          "name": "_royaltyFee",
          "type": "uint256"
        },
        {
          "internalType": "address",
          "name": "_artist",
          "type": "address"
        },
        {
          "internalType": "uint256[]",
          "name": "_prices",
          "type": "uint256[]"
        }
      ],
      "stateMutability": "payable",
      "type": "constructor"
    },
    {
      "anonymous": false,
      "inputs": [
        {
          "indexed": true,
          "internalType": "address",
          "name": "owner",
          "type": "address"
        },
        {
          "indexed": true,
          "internalType": "address",
          "name": "approved",
          "type": "address"
        },
        {
          "indexed": true,
          "internalType": "uint256",
          "name": "tokenId",
          "type": "uint256"
        }
      ],
      "name": "Approval",
      "type": "event"
    },
    {
      "anonymous": false,
      "inputs": [
        {
          "indexed": true,
          "internalType": "address",
          "name": "owner",
          "type": "address"
        },
        {
          "indexed": true,
          "internalType": "address",
          "name": "operator",
          "type": "address"
        },
        {
          "indexed": false,
          "internalType": "bool",
          "name": "approved",
          "type": "bool"
        }
      ],
      "name": "ApprovalForAll",
      "type": "event"
    },
    {
      "anonymous": false,
      "inputs": [
        {
          "indexed": true,
          "internalType": "uint256",
          "name": "tokenId",
          "type": "uint256"
        },
        {
          "indexed": true,
          "internalType": "address",
          "name": "seller",
          "type": "address"
        },
        {
          "indexed": false,
          "internalType": "address",
          "name": "buyer",
          "type": "address"
        },
        {
          "indexed": false,
          "internalType": "uint256",
          "name": "price",
          "type": "uint256"
        }
      ],
      "name": "MarketItemBought",
      "type": "event"
    },
    {
      "anonymous": false,
      "inputs": [
        {
          "indexed": true,
          "internalType": "uint256",
          "name": "tokenId",
          "type": "uint256"
        },
        {
          "indexed": true,
          "internalType": "address",
          "name": "seller",
          "type": "address"
        },
        {
          "indexed": false,
          "internalType": "uint256",
          "name": "price",
          "type": "uint256"
        }
      ],
      "name": "MarketItemRelisted",
      "type": "event"
    },
    {
      "anonymous": false,
      "inputs": [
        {
          "indexed": true,
          "internalType": "address",
          "name": "previousOwner",
          "type": "address"
        },
        {
          "indexed": true,
          "internalType": "address",
          "name": "newOwner",
          "type": "address"
        }
      ],
      "name": "OwnershipTransferred",
      "type": "event"
    },
    {
      "anonymous": false,
      "inputs": [
        {
          "indexed": true,
          "internalType": "address",
          "name": "from",
          "type": "address"
        },
        {
          "indexed": true,
          "internalType": "address",
          "name": "to",
          "type": "address"
        },
        {
          "indexed": true,
          "internalType": "uint256",
          "name": "tokenId",
          "type": "uint256"
        }
      ],
      "name": "Transfer",
      "type": "event"
    },
    {
      "inputs": [
        {
          "internalType": "address",
          "name": "to",
          "type": "address"
        },
        {
          "internalType": "uint256",
          "name": "tokenId",
          "type": "uint256"
        }
      ],
      "name": "approve",
      "outputs": [],
      "stateMutability": "nonpayable",
      "type": "function"
    },
    {
      "inputs": [],
      "name": "artist",
      "outputs": [
        {
          "internalType": "address",
          "name": "",
          "type": "address"
        }
      ],
      "stateMutability": "view",
      "type": "function"
    },
    {
      "inputs": [
        {
          "internalType": "address",
          "name": "owner",
          "type": "address"
        }
      ],
      "name": "balanceOf",
      "outputs": [
        {
          "internalType": "uint256",
          "name": "",
          "type": "uint256"
        }
      ],
      "stateMutability": "view",
      "type": "function"
    },
    {
      "inputs": [],
      "name": "baseExtension",
      "outputs": [
        {
          "internalType": "string",
          "name": "",
          "type": "string"
        }
      ],
      "stateMutability": "view",
      "type": "function"
    },
    {
      "inputs": [],
      "name": "baseURI",
      "outputs": [
        {
          "internalType": "string",
          "name": "",
          "type": "string"
        }
      ],
      "stateMutability": "view",
      "type": "function"
    },
    {
      "inputs": [
        {
          "internalType": "uint256",
          "name": "_tokenId",
          "type": "uint256"
        }
      ],
      "name": "buyToken",
      "outputs": [],
      "stateMutability": "payable",
      "type": "function"
    },
    {
      "inputs": [],
      "name": "getAllUnsoldTokens",
      "outputs": [
        {
          "components": [
            {
              "internalType": "uint256",
              "name": "tokenId",
              "type": "uint256"
            },
            {
              "internalType": "address payable",
              "name": "seller",
              "type": "address"
            },
            {
              "internalType": "uint256",
              "name": "price",
              "type": "uint256"
            }
          ],
          "internalType": "struct MusicNFTMarketplace.MarketItem[]",
          "name": "",
          "type": "tuple[]"
        }
      ],
      "stateMutability": "view",
      "type": "function"
    },
    {
      "inputs": [
        {
          "internalType": "uint256",
          "name": "tokenId",
          "type": "uint256"
        }
      ],
      "name": "getApproved",
      "outputs": [
        {
          "internalType": "address",
          "name": "",
          "type": "address"
        }
      ],
      "stateMutability": "view",
      "type": "function"
    },
    {
      "inputs": [],
      "name": "getMyTokens",
      "outputs": [
        {
          "components": [
            {
              "internalType": "uint256",
              "name": "tokenId",
              "type": "uint256"
            },
            {
              "internalType": "address payable",
              "name": "seller",
              "type": "address"
            },
            {
              "internalType": "uint256",
              "name": "price",
              "type": "uint256"
            }
          ],
          "internalType": "struct MusicNFTMarketplace.MarketItem[]",
          "name": "",
          "type": "tuple[]"
        }
      ],
      "stateMutability": "view",
      "type": "function"
    },
    {
      "inputs": [
        {
          "internalType": "address",
          "name": "owner",
          "type": "address"
        },
        {
          "internalType": "address",
          "name": "operator",
          "type": "address"
        }
      ],
      "name": "isApprovedForAll",
      "outputs": [
        {
          "internalType": "bool",
          "name": "",
          "type": "bool"
        }
      ],
      "stateMutability": "view",
      "type": "function"
    },
    {
      "inputs": [
        {
          "internalType": "uint256",
          "name": "",
          "type": "uint256"
        }
      ],
      "name": "marketItems",
      "outputs": [
        {
          "internalType": "uint256",
          "name": "tokenId",
          "type": "uint256"
        },
        {
          "internalType": "address payable",
          "name": "seller",
          "type": "address"
        },
        {
          "internalType": "uint256",
          "name": "price",
          "type": "uint256"
        }
      ],
      "stateMutability": "view",
      "type": "function"
    },
    {
      "inputs": [],
      "name": "name",
      "outputs": [
        {
          "internalType": "string",
          "name": "",
          "type": "string"
        }
      ],
      "stateMutability": "view",
      "type": "function"
    },
    {
      "inputs": [],
      "name": "owner",
      "outputs": [
        {
          "internalType": "address",
          "name": "",
          "type": "address"
        }
      ],
      "stateMutability": "view",
      "type": "function"
    },
    {
      "inputs": [
        {
          "internalType": "uint256",
          "name": "tokenId",
          "type": "uint256"
        }
      ],
      "name": "ownerOf",
      "outputs": [
        {
          "internalType": "address",
          "name": "",
          "type": "address"
        }
      ],
      "stateMutability": "view",
      "type": "function"
    },
    {
      "inputs": [],
      "name": "renounceOwnership",
      "outputs": [],
      "stateMutability": "nonpayable",
      "type": "function"
    },
    {
      "inputs": [
        {
          "internalType": "uint256",
          "name": "_tokenId",
          "type": "uint256"
        },
        {
          "internalType": "uint256",
          "name": "_price",
          "type": "uint256"
        }
      ],
      "name": "resellToken",
      "outputs": [],
      "stateMutability": "payable",
      "type": "function"
    },
    {
      "inputs": [],
      "name": "royaltyFee",
      "outputs": [
        {
          "internalType": "uint256",
          "name": "",
          "type": "uint256"
        }
      ],
      "stateMutability": "view",
      "type": "function"
    },
    {
      "inputs": [
        {
          "internalType": "address",
          "name": "from",
          "type": "address"
        },
        {
          "internalType": "address",
          "name": "to",
          "type": "address"
        },
        {
          "internalType": "uint256",
          "name": "tokenId",
          "type": "uint256"
        }
      ],
      "name": "safeTransferFrom",
      "outputs": [],
      "stateMutability": "nonpayable",
      "type": "function"
    },
    {
      "inputs": [
        {
          "internalType": "address",
          "name": "from",
          "type": "address"
        },
        {
          "internalType": "address",
          "name": "to",
          "type": "address"
        },
        {
          "internalType": "uint256",
          "name": "tokenId",
          "type": "uint256"
        },
        {
          "internalType": "bytes",
          "name": "_data",
          "type": "bytes"
        }
      ],
      "name": "safeTransferFrom",
      "outputs": [],
      "stateMutability": "nonpayable",
      "type": "function"
    },
    {
      "inputs": [
        {
          "internalType": "address",
          "name": "operator",
          "type": "address"
        },
        {
          "internalType": "bool",
          "name": "approved",
          "type": "bool"
        }
      ],
      "name": "setApprovalForAll",
      "outputs": [],
      "stateMutability": "nonpayable",
      "type": "function"
    },
    {
      "inputs": [
        {
          "internalType": "bytes4",
          "name": "interfaceId",
          "type": "bytes4"
        }
      ],
      "name": "supportsInterface",
      "outputs": [
        {
          "internalType": "bool",
          "name": "",
          "type": "bool"
        }
      ],
      "stateMutability": "view",
      "type": "function"
    },
    {
      "inputs": [],
      "name": "symbol",
      "outputs": [
        {
          "internalType": "string",
          "name": "",
          "type": "string"
        }
      ],
      "stateMutability": "view",
      "type": "function"
    },
    {
      "inputs": [
        {
          "internalType": "uint256",
          "name": "tokenId",
          "type": "uint256"
        }
      ],
      "name": "tokenURI",
      "outputs": [
        {
          "internalType": "string",
          "name": "",
          "type": "string"
        }
      ],
      "stateMutability": "view",
      "type": "function"
    },
    {
      "inputs": [
        {
          "internalType": "address",
          "name": "from",
          "type": "address"
        },
        {
          "internalType": "address",
          "name": "to",
          "type": "address"
        },
        {
          "internalType": "uint256",
          "name": "tokenId",
          "type": "uint256"
        }
      ],
      "name": "transferFrom",
      "outputs": [],
      "stateMutability": "nonpayable",
      "type": "function"
    },
    {
      "inputs": [
        {
          "internalType": "address",
          "name": "newOwner",
          "type": "address"
        }
      ],
      "name": "transferOwnership",
      "outputs": [],
      "stateMutability": "nonpayable",
      "type": "function"
    },
    {
      "inputs": [
        {
          "internalType": "uint256",
          "name": "_royaltyFee",
          "type": "uint256"
        }
      ],
      "name": "updateRoyaltyFee",
      "outputs": [],
      "stateMutability": "nonpayable",
      "type": "function"
    }
  ],
  "bytecode": "0x6080604052604051806080016040528060598152602001620047ab60599139600790805190602001906200003592919062000712565b506040518060400160405280600581526020017f2e6a736f6e000000000000000000000000000000000000000000000000000000815250600890805190602001906200008392919062000712565b5060405162004804380380620048048339818101604052810190620000a9919062000892565b6040518060400160405280600681526020017f44417070466900000000000000000000000000000000000000000000000000008152506040518060400160405280600481526020017f444150500000000000000000000000000000000000000000000000000000000081525081600090805190602001906200012d92919062000712565b5080600190805190602001906200014692919062000712565b505050620001696200015d620003d460201b60201c565b620003dc60201b60201c565b3483825162000179919062000aeb565b1115620001bd576040517f08c379a0000000000000000000000000000000000000000000000000000000008152600401620001b490620009e1565b60405180910390fd5b82600a8190555081600960006101000a81548173ffffffffffffffffffffffffffffffffffffffff021916908373ffffffffffffffffffffffffffffffffffffffff16021790555060005b81518160ff161015620003ca576000828260ff168151811062000254577f4e487b7100000000000000000000000000000000000000000000000000000000600052603260045260246000fd5b6020026020010151116200029f576040517f08c379a0000000000000000000000000000000000000000000000000000000008152600401620002969062000a03565b60405180910390fd5b620002b4308260ff16620004a260201b60201c565b600b60405180606001604052808360ff1681526020013373ffffffffffffffffffffffffffffffffffffffff168152602001848460ff168151811062000323577f4e487b7100000000000000000000000000000000000000000000000000000000600052603260045260246000fd5b602002602001015181525090806001815401808255809150506001900390600052602060002090600302016000909190919091506000820151816000015560208201518160010160006101000a81548173ffffffffffffffffffffffffffffffffffffffff021916908373ffffffffffffffffffffffffffffffffffffffff1602179055506040820151816002015550508080620003c19062000c03565b91505062000208565b5050505062000df4565b600033905090565b6000600660009054906101000a900473ffffffffffffffffffffffffffffffffffffffff16905081600660006101000a81548173ffffffffffffffffffffffffffffffffffffffff021916908373ffffffffffffffffffffffffffffffffffffffff1602179055508173ffffffffffffffffffffffffffffffffffffffff168173ffffffffffffffffffffffffffffffffffffffff167f8be0079c531659141344cd1fd0a4f28419497f9722a3daafe3b4186f6b6457e060405160405180910390a35050565b600073ffffffffffffffffffffffffffffffffffffffff168273ffffffffffffffffffffffffffffffffffffffff16141562000515576040517f08c379a00000000000000000000000000000000000000000000000000000000081526004016200050c90620009bf565b60405180910390fd5b62000526816200069c60201b60201c565b1562000569576040517f08c379a000000000000000000000000000000000000000000000000000000000815260040162000560906200099d565b60405180910390fd5b6200057d600083836200070860201b60201c565b6001600360008473ffffffffffffffffffffffffffffffffffffffff1673ffffffffffffffffffffffffffffffffffffffff1681526020019081526020016000206000828254620005cf919062000a8e565b92505081905550816002600083815260200190815260200160002060006101000a81548173ffffffffffffffffffffffffffffffffffffffff021916908373ffffffffffffffffffffffffffffffffffffffff160217905550808273ffffffffffffffffffffffffffffffffffffffff16600073ffffffffffffffffffffffffffffffffffffffff167fddf252ad1be2c89b69c2b068fc378daa952ba7f163c4a11628f55a4df523b3ef60405160405180910390a462000698600083836200070d60201b60201c565b5050565b60008073ffffffffffffffffffffffffffffffffffffffff166002600084815260200190815260200160002060009054906101000a900473ffffffffffffffffffffffffffffffffffffffff1673ffffffffffffffffffffffffffffffffffffffff1614159050919050565b505050565b505050565b828054620007209062000b97565b90600052602060002090601f01602090048101928262000744576000855562000790565b82601f106200075f57805160ff191683800117855562000790565b8280016001018555821562000790579182015b828111156200078f57825182559160200191906001019062000772565b5b5090506200079f9190620007a3565b5090565b5b80821115620007be576000816000905550600101620007a4565b5090565b6000620007d9620007d38462000a4e565b62000a25565b90508083825260208201905082856020860282011115620007f957600080fd5b60005b858110156200082d57816200081288826200087b565b845260208401935060208301925050600181019050620007fc565b5050509392505050565b600081519050620008488162000dc0565b92915050565b600082601f8301126200086057600080fd5b815162000872848260208601620007c2565b91505092915050565b6000815190506200088c8162000dda565b92915050565b600080600060608486031215620008a857600080fd5b6000620008b8868287016200087b565b9350506020620008cb8682870162000837565b925050604084015167ffffffffffffffff811115620008e957600080fd5b620008f7868287016200084e565b9150509250925092565b600062000910601c8362000a7d565b91506200091d8262000cd0565b602082019050919050565b60006200093760208362000a7d565b9150620009448262000cf9565b602082019050919050565b60006200095e60468362000a7d565b91506200096b8262000d22565b606082019050919050565b600062000985601c8362000a7d565b9150620009928262000d97565b602082019050919050565b60006020820190508181036000830152620009b88162000901565b9050919050565b60006020820190508181036000830152620009da8162000928565b9050919050565b60006020820190508181036000830152620009fc816200094f565b9050919050565b6000602082019050818103600083015262000a1e8162000976565b9050919050565b600062000a3162000a44565b905062000a3f828262000bcd565b919050565b6000604051905090565b600067ffffffffffffffff82111562000a6c5762000a6b62000c90565b5b602082029050602081019050919050565b600082825260208201905092915050565b600062000a9b8262000b80565b915062000aa88362000b80565b9250827fffffffffffffffffffffffffffffffffffffffffffffffffffffffffffffffff0382111562000ae05762000adf62000c32565b5b828201905092915050565b600062000af88262000b80565b915062000b058362000b80565b9250817fffffffffffffffffffffffffffffffffffffffffffffffffffffffffffffffff048311821515161562000b415762000b4062000c32565b5b828202905092915050565b600062000b598262000b60565b9050919050565b600073ffffffffffffffffffffffffffffffffffffffff82169050919050565b6000819050919050565b600060ff82169050919050565b6000600282049050600182168062000bb057607f821691505b6020821081141562000bc75762000bc662000c61565b5b50919050565b62000bd88262000cbf565b810181811067ffffffffffffffff8211171562000bfa5762000bf962000c90565b5b80604052505050565b600062000c108262000b8a565b915060ff82141562000c275762000c2662000c32565b5b600182019050919050565b7f4e487b7100000000000000000000000000000000000000000000000000000000600052601160045260246000fd5b7f4e487b7100000000000000000000000000000000000000000000000000000000600052602260045260246000fd5b7f4e487b7100000000000000000000000000000000000000000000000000000000600052604160045260246000fd5b6000601f19601f8301169050919050565b7f4552433732313a20746f6b656e20616c7265616479206d696e74656400000000600082015250565b7f4552433732313a206d696e7420746f20746865207a65726f2061646472657373600082015250565b7f4465706c6f796572206d7573742070617920726f79616c74792066656520666f60008201527f72206561636820746f6b656e206c6973746564206f6e20746865206d61726b6560208201527f74706c6163650000000000000000000000000000000000000000000000000000604082015250565b7f5072696365206d7573742062652067726561746572207468616e203000000000600082015250565b62000dcb8162000b4c565b811462000dd757600080fd5b50565b62000de58162000b80565b811462000df157600080fd5b50565b6139a78062000e046000396000f3fe6080604052600436106101815760003560e01c806370a08231116100d1578063b88d4fde1161008a578063c87b56dd11610064578063c87b56dd14610565578063e219fc75146105a2578063e985e9c5146105be578063f2fde38b146105fb57610181565b8063b88d4fde146104e6578063b8997a971461050f578063c66828621461053a57610181565b806370a08231146103e8578063715018a614610425578063767dd0761461043c5780638da5cb5b1461046757806395d89b4114610492578063a22cb465146104bd57610181565b806342842e0e1161013e57806351f28e141161011857806351f28e14146103165780635b3b136a146103555780636352211e146103805780636c0360eb146103bd57610181565b806342842e0e1461029957806343bc1612146102c25780634e83be47146102ed57610181565b806301ffc9a71461018657806306fdde03146101c3578063081812fc146101ee578063095ea7b31461022b57806323b872dd146102545780632d296bf11461027d575b600080fd5b34801561019257600080fd5b506101ad60048036038101906101a8919061282b565b610624565b6040516101ba9190612dc0565b60405180910390f35b3480156101cf57600080fd5b506101d8610706565b6040516101e59190612ddb565b60405180910390f35b3480156101fa57600080fd5b506102156004803603810190610210919061287d565b610798565b6040516102229190612d0e565b60405180910390f35b34801561023757600080fd5b50610252600480360381019061024d91906127ef565b61081d565b005b34801561026057600080fd5b5061027b600480360381019061027691906126e9565b610935565b005b6102976004803603810190610292919061287d565b610995565b005b3480156102a557600080fd5b506102c060048036038101906102bb91906126e9565b610c35565b005b3480156102ce57600080fd5b506102d7610c55565b6040516102e49190612d0e565b60405180910390f35b3480156102f957600080fd5b50610314600480360381019061030f919061287d565b610c7b565b005b34801561032257600080fd5b5061033d6004803603810190610338919061287d565b610d01565b60405161034c93929190613038565b60405180910390f35b34801561036157600080fd5b5061036a610d5b565b6040516103779190612d9e565b60405180910390f35b34801561038c57600080fd5b506103a760048036038101906103a2919061287d565b610f66565b6040516103b49190612d0e565b60405180910390f35b3480156103c957600080fd5b506103d2611018565b6040516103df9190612ddb565b60405180910390f35b3480156103f457600080fd5b5061040f600480360381019061040a9190612684565b6110a6565b60405161041c919061301d565b60405180910390f35b34801561043157600080fd5b5061043a61115e565b005b34801561044857600080fd5b506104516111e6565b60405161045e9190612d9e565b60405180910390f35b34801561047357600080fd5b5061047c611454565b6040516104899190612d0e565b60405180910390f35b34801561049e57600080fd5b506104a761147e565b6040516104b49190612ddb565b60405180910390f35b3480156104c957600080fd5b506104e460048036038101906104df91906127b3565b611510565b005b3480156104f257600080fd5b5061050d60048036038101906105089190612738565b611526565b005b34801561051b57600080fd5b50610524611588565b604051610531919061301d565b60405180910390f35b34801561054657600080fd5b5061054f61158e565b60405161055c9190612ddb565b60405180910390f35b34801561057157600080fd5b5061058c6004803603810190610587919061287d565b61161c565b6040516105999190612ddb565b60405180910390f35b6105bc60048036038101906105b791906128a6565b6116c3565b005b3480156105ca57600080fd5b506105e560048036038101906105e091906126ad565b611882565b6040516105f29190612dc0565b60405180910390f35b34801561060757600080fd5b50610622600480360381019061061d9190612684565b611916565b005b60007f80ac58cd000000000000000000000000000000000000000000000000000000007bffffffffffffffffffffffffffffffffffffffffffffffffffffffff1916827bffffffffffffffffffffffffffffffffffffffffffffffffffffffff191614806106ef57507f5b5e139f000000000000000000000000000000000000000000000000000000007bffffffffffffffffffffffffffffffffffffffffffffffffffffffff1916827bffffffffffffffffffffffffffffffffffffffffffffffffffffffff1916145b806106ff57506106fe82611a0e565b5b9050919050565b606060008054610715906132c4565b80601f0160208091040260200160405190810160405280929190818152602001828054610741906132c4565b801561078e5780601f106107635761010080835404028352916020019161078e565b820191906000526020600020905b81548152906001019060200180831161077157829003601f168201915b5050505050905090565b60006107a382611a78565b6107e2576040517f08c379a00000000000000000000000000000000000000000000000000000000081526004016107d990612f7d565b60405180910390fd5b6004600083815260200190815260200160002060009054906101000a900473ffffffffffffffffffffffffffffffffffffffff169050919050565b600061082882610f66565b90508073ffffffffffffffffffffffffffffffffffffffff168373ffffffffffffffffffffffffffffffffffffffff161415610899576040517f08c379a000000000000000000000000000000000000000000000000000000000815260040161089090612fdd565b60405180910390fd5b8073ffffffffffffffffffffffffffffffffffffffff166108b8611ae4565b73ffffffffffffffffffffffffffffffffffffffff1614806108e757506108e6816108e1611ae4565b611882565b5b610926576040517f08c379a000000000000000000000000000000000000000000000000000000000815260040161091d90612efd565b60405180910390fd5b6109308383611aec565b505050565b610946610940611ae4565b82611ba5565b610985576040517f08c379a000000000000000000000000000000000000000000000000000000000815260040161097c90612ffd565b60405180910390fd5b610990838383611c83565b505050565b6000600b82815481106109d1577f4e487b7100000000000000000000000000000000000000000000000000000000600052603260045260246000fd5b90600052602060002090600302016002015490506000600b8381548110610a21577f4e487b7100000000000000000000000000000000000000000000000000000000600052603260045260246000fd5b906000526020600020906003020160010160009054906101000a900473ffffffffffffffffffffffffffffffffffffffff169050813414610a97576040517f08c379a0000000000000000000000000000000000000000000000000000000008152600401610a8e90612f5d565b60405180910390fd5b6000600b8481548110610ad3577f4e487b7100000000000000000000000000000000000000000000000000000000600052603260045260246000fd5b906000526020600020906003020160010160006101000a81548173ffffffffffffffffffffffffffffffffffffffff021916908373ffffffffffffffffffffffffffffffffffffffff160217905550610b2d303385611c83565b600960009054906101000a900473ffffffffffffffffffffffffffffffffffffffff1673ffffffffffffffffffffffffffffffffffffffff166108fc600a549081150290604051600060405180830381858888f19350505050158015610b97573d6000803e3d6000fd5b508073ffffffffffffffffffffffffffffffffffffffff166108fc349081150290604051600060405180830381858888f19350505050158015610bde573d6000803e3d6000fd5b508073ffffffffffffffffffffffffffffffffffffffff16837fd356b8423ef89ccba8e4f1dbeccc60b41825fd97d432f2e6a6dbd11ae6ecec113385604051610c28929190612d75565b60405180910390a3505050565b610c5083838360405180602001604052806000815250611526565b505050565b600960009054906101000a900473ffffffffffffffffffffffffffffffffffffffff1681565b610c83611ae4565b73ffffffffffffffffffffffffffffffffffffffff16610ca1611454565b73ffffffffffffffffffffffffffffffffffffffff1614610cf7576040517f08c379a0000000000000000000000000000000000000000000000000000000008152600401610cee90612f9d565b60405180910390fd5b80600a8190555050565b600b8181548110610d1157600080fd5b90600052602060002090600302016000915090508060000154908060010160009054906101000a900473ffffffffffffffffffffffffffffffffffffffff16908060020154905083565b60606000610d68336110a6565b905060008167ffffffffffffffff811115610dac577f4e487b7100000000000000000000000000000000000000000000000000000000600052604160045260246000fd5b604051908082528060200260200182016040528015610de557816020015b610dd261257c565b815260200190600190039081610dca5790505b509050600080600090505b600b80549050811015610f5c573373ffffffffffffffffffffffffffffffffffffffff16610e1d82610f66565b73ffffffffffffffffffffffffffffffffffffffff161415610f4957600b8181548110610e73577f4e487b7100000000000000000000000000000000000000000000000000000000600052603260045260246000fd5b9060005260206000209060030201604051806060016040529081600082015481526020016001820160009054906101000a900473ffffffffffffffffffffffffffffffffffffffff1673ffffffffffffffffffffffffffffffffffffffff1673ffffffffffffffffffffffffffffffffffffffff168152602001600282015481525050838381518110610f2f577f4e487b7100000000000000000000000000000000000000000000000000000000600052603260045260246000fd5b60200260200101819052508180610f4590613327565b9250505b8080610f5490613327565b915050610df0565b5081935050505090565b6000806002600084815260200190815260200160002060009054906101000a900473ffffffffffffffffffffffffffffffffffffffff169050600073ffffffffffffffffffffffffffffffffffffffff168173ffffffffffffffffffffffffffffffffffffffff16141561100f576040517f08c379a000000000000000000000000000000000000000000000000000000000815260040161100690612f3d565b60405180910390fd5b80915050919050565b60078054611025906132c4565b80601f0160208091040260200160405190810160405280929190818152602001828054611051906132c4565b801561109e5780601f106110735761010080835404028352916020019161109e565b820191906000526020600020905b81548152906001019060200180831161108157829003601f168201915b505050505081565b60008073ffffffffffffffffffffffffffffffffffffffff168273ffffffffffffffffffffffffffffffffffffffff161415611117576040517f08c379a000000000000000000000000000000000000000000000000000000000815260040161110e90612f1d565b60405180910390fd5b600360008373ffffffffffffffffffffffffffffffffffffffff1673ffffffffffffffffffffffffffffffffffffffff168152602001908152602001600020549050919050565b611166611ae4565b73ffffffffffffffffffffffffffffffffffffffff16611184611454565b73ffffffffffffffffffffffffffffffffffffffff16146111da576040517f08c379a00000000000000000000000000000000000000000000000000000000081526004016111d190612f9d565b60405180910390fd5b6111e46000611eea565b565b606060006111f3306110a6565b905060008167ffffffffffffffff811115611237577f4e487b7100000000000000000000000000000000000000000000000000000000600052604160045260246000fd5b60405190808252806020026020018201604052801561127057816020015b61125d61257c565b8152602001906001900390816112555790505b509050600080600090505b600b8054905081101561144a57600073ffffffffffffffffffffffffffffffffffffffff16600b82815481106112da577f4e487b7100000000000000000000000000000000000000000000000000000000600052603260045260246000fd5b906000526020600020906003020160010160009054906101000a900473ffffffffffffffffffffffffffffffffffffffff1673ffffffffffffffffffffffffffffffffffffffff161461143757600b8181548110611361577f4e487b7100000000000000000000000000000000000000000000000000000000600052603260045260246000fd5b9060005260206000209060030201604051806060016040529081600082015481526020016001820160009054906101000a900473ffffffffffffffffffffffffffffffffffffffff1673ffffffffffffffffffffffffffffffffffffffff1673ffffffffffffffffffffffffffffffffffffffff16815260200160028201548152505083838151811061141d577f4e487b7100000000000000000000000000000000000000000000000000000000600052603260045260246000fd5b6020026020010181905250818061143390613327565b9250505b808061144290613327565b91505061127b565b5081935050505090565b6000600660009054906101000a900473ffffffffffffffffffffffffffffffffffffffff16905090565b60606001805461148d906132c4565b80601f01602080910402602001604051908101604052809291908181526020018280546114b9906132c4565b80156115065780601f106114db57610100808354040283529160200191611506565b820191906000526020600020905b8154815290600101906020018083116114e957829003601f168201915b5050505050905090565b61152261151b611ae4565b8383611fb0565b5050565b611537611531611ae4565b83611ba5565b611576576040517f08c379a000000000000000000000000000000000000000000000000000000000815260040161156d90612ffd565b60405180910390fd5b6115828484848461211d565b50505050565b600a5481565b6008805461159b906132c4565b80601f01602080910402602001604051908101604052809291908181526020018280546115c7906132c4565b80156116145780601f106115e957610100808354040283529160200191611614565b820191906000526020600020905b8154815290600101906020018083116115f757829003601f168201915b505050505081565b606061162782611a78565b611666576040517f08c379a000000000000000000000000000000000000000000000000000000000815260040161165d90612fbd565b60405180910390fd5b6000611670612179565b9050600081511161169057604051806020016040528060008152506116bb565b8061169a8461220b565b6040516020016116ab929190612cea565b6040516020818303038152906040525b915050919050565b600a543414611707576040517f08c379a00000000000000000000000000000000000000000000000000000000081526004016116fe90612e7d565b60405180910390fd5b6000811161174a576040517f08c379a000000000000000000000000000000000000000000000000000000000815260040161174190612dfd565b60405180910390fd5b80600b8381548110611785577f4e487b7100000000000000000000000000000000000000000000000000000000600052603260045260246000fd5b90600052602060002090600302016002018190555033600b83815481106117d5577f4e487b7100000000000000000000000000000000000000000000000000000000600052603260045260246000fd5b906000526020600020906003020160010160006101000a81548173ffffffffffffffffffffffffffffffffffffffff021916908373ffffffffffffffffffffffffffffffffffffffff16021790555061182f333084611c83565b3373ffffffffffffffffffffffffffffffffffffffff16827fb2ba12d2566848b13548a3741edb565b69d3cbce7796959cd67431610207eb1383604051611876919061301d565b60405180910390a35050565b6000600560008473ffffffffffffffffffffffffffffffffffffffff1673ffffffffffffffffffffffffffffffffffffffff16815260200190815260200160002060008373ffffffffffffffffffffffffffffffffffffffff1673ffffffffffffffffffffffffffffffffffffffff16815260200190815260200160002060009054906101000a900460ff16905092915050565b61191e611ae4565b73ffffffffffffffffffffffffffffffffffffffff1661193c611454565b73ffffffffffffffffffffffffffffffffffffffff1614611992576040517f08c379a000000000000000000000000000000000000000000000000000000000815260040161198990612f9d565b60405180910390fd5b600073ffffffffffffffffffffffffffffffffffffffff168173ffffffffffffffffffffffffffffffffffffffff161415611a02576040517f08c379a00000000000000000000000000000000000000000000000000000000081526004016119f990612e3d565b60405180910390fd5b611a0b81611eea565b50565b60007f01ffc9a7000000000000000000000000000000000000000000000000000000007bffffffffffffffffffffffffffffffffffffffffffffffffffffffff1916827bffffffffffffffffffffffffffffffffffffffffffffffffffffffff1916149050919050565b60008073ffffffffffffffffffffffffffffffffffffffff166002600084815260200190815260200160002060009054906101000a900473ffffffffffffffffffffffffffffffffffffffff1673ffffffffffffffffffffffffffffffffffffffff1614159050919050565b600033905090565b816004600083815260200190815260200160002060006101000a81548173ffffffffffffffffffffffffffffffffffffffff021916908373ffffffffffffffffffffffffffffffffffffffff160217905550808273ffffffffffffffffffffffffffffffffffffffff16611b5f83610f66565b73ffffffffffffffffffffffffffffffffffffffff167f8c5be1e5ebec7d5bd14f71427d1e84f3dd0314c0f7b2291e5b200ac8c7c3b92560405160405180910390a45050565b6000611bb082611a78565b611bef576040517f08c379a0000000000000000000000000000000000000000000000000000000008152600401611be690612edd565b60405180910390fd5b6000611bfa83610f66565b90508073ffffffffffffffffffffffffffffffffffffffff168473ffffffffffffffffffffffffffffffffffffffff161480611c6957508373ffffffffffffffffffffffffffffffffffffffff16611c5184610798565b73ffffffffffffffffffffffffffffffffffffffff16145b80611c7a5750611c798185611882565b5b91505092915050565b8273ffffffffffffffffffffffffffffffffffffffff16611ca382610f66565b73ffffffffffffffffffffffffffffffffffffffff1614611cf9576040517f08c379a0000000000000000000000000000000000000000000000000000000008152600401611cf090612e5d565b60405180910390fd5b600073ffffffffffffffffffffffffffffffffffffffff168273ffffffffffffffffffffffffffffffffffffffff161415611d69576040517f08c379a0000000000000000000000000000000000000000000000000000000008152600401611d6090612e9d565b60405180910390fd5b611d748383836123b8565b611d7f600082611aec565b6001600360008573ffffffffffffffffffffffffffffffffffffffff1673ffffffffffffffffffffffffffffffffffffffff1681526020019081526020016000206000828254611dcf91906131c8565b925050819055506001600360008473ffffffffffffffffffffffffffffffffffffffff1673ffffffffffffffffffffffffffffffffffffffff1681526020019081526020016000206000828254611e269190613141565b92505081905550816002600083815260200190815260200160002060006101000a81548173ffffffffffffffffffffffffffffffffffffffff021916908373ffffffffffffffffffffffffffffffffffffffff160217905550808273ffffffffffffffffffffffffffffffffffffffff168473ffffffffffffffffffffffffffffffffffffffff167fddf252ad1be2c89b69c2b068fc378daa952ba7f163c4a11628f55a4df523b3ef60405160405180910390a4611ee58383836123bd565b505050565b6000600660009054906101000a900473ffffffffffffffffffffffffffffffffffffffff16905081600660006101000a81548173ffffffffffffffffffffffffffffffffffffffff021916908373ffffffffffffffffffffffffffffffffffffffff1602179055508173ffffffffffffffffffffffffffffffffffffffff168173ffffffffffffffffffffffffffffffffffffffff167f8be0079c531659141344cd1fd0a4f28419497f9722a3daafe3b4186f6b6457e060405160405180910390a35050565b8173ffffffffffffffffffffffffffffffffffffffff168373ffffffffffffffffffffffffffffffffffffffff16141561201f576040517f08c379a000000000000000000000000000000000000000000000000000000000815260040161201690612ebd565b60405180910390fd5b80600560008573ffffffffffffffffffffffffffffffffffffffff1673ffffffffffffffffffffffffffffffffffffffff16815260200190815260200160002060008473ffffffffffffffffffffffffffffffffffffffff1673ffffffffffffffffffffffffffffffffffffffff16815260200190815260200160002060006101000a81548160ff0219169083151502179055508173ffffffffffffffffffffffffffffffffffffffff168373ffffffffffffffffffffffffffffffffffffffff167f17307eab39ab6107e8899845ad3d59bd9653f200f220920489ca2b5937696c31836040516121109190612dc0565b60405180910390a3505050565b612128848484611c83565b612134848484846123c2565b612173576040517f08c379a000000000000000000000000000000000000000000000000000000000815260040161216a90612e1d565b60405180910390fd5b50505050565b606060078054612188906132c4565b80601f01602080910402602001604051908101604052809291908181526020018280546121b4906132c4565b80156122015780601f106121d657610100808354040283529160200191612201565b820191906000526020600020905b8154815290600101906020018083116121e457829003601f168201915b5050505050905090565b60606000821415612253576040518060400160405280600181526020017f300000000000000000000000000000000000000000000000000000000000000081525090506123b3565b600082905060005b6000821461228557808061226e90613327565b915050600a8261227e9190613197565b915061225b565b60008167ffffffffffffffff8111156122c7577f4e487b7100000000000000000000000000000000000000000000000000000000600052604160045260246000fd5b6040519080825280601f01601f1916602001820160405280156122f95781602001600182028036833780820191505090505b5090505b600085146123ac5760018261231291906131c8565b9150600a856123219190613370565b603061232d9190613141565b60f81b818381518110612369577f4e487b7100000000000000000000000000000000000000000000000000000000600052603260045260246000fd5b60200101907effffffffffffffffffffffffffffffffffffffffffffffffffffffffffffff1916908160001a905350600a856123a59190613197565b94506122fd565b8093505050505b919050565b505050565b505050565b60006123e38473ffffffffffffffffffffffffffffffffffffffff16612559565b1561254c578373ffffffffffffffffffffffffffffffffffffffff1663150b7a0261240c611ae4565b8786866040518563ffffffff1660e01b815260040161242e9493929190612d29565b602060405180830381600087803b15801561244857600080fd5b505af192505050801561247957506040513d601f19601f820116820180604052508101906124769190612854565b60015b6124fc573d80600081146124a9576040519150601f19603f3d011682016040523d82523d6000602084013e6124ae565b606091505b506000815114156124f4576040517f08c379a00000000000000000000000000000000000000000000000000000000081526004016124eb90612e1d565b60405180910390fd5b805181602001fd5b63150b7a0260e01b7bffffffffffffffffffffffffffffffffffffffffffffffffffffffff1916817bffffffffffffffffffffffffffffffffffffffffffffffffffffffff191614915050612551565b600190505b949350505050565b6000808273ffffffffffffffffffffffffffffffffffffffff163b119050919050565b604051806060016040528060008152602001600073ffffffffffffffffffffffffffffffffffffffff168152602001600081525090565b60006125c66125c184613094565b61306f565b9050828152602081018484840111156125de57600080fd5b6125e9848285613282565b509392505050565b60008135905061260081613915565b92915050565b6000813590506126158161392c565b92915050565b60008135905061262a81613943565b92915050565b60008151905061263f81613943565b92915050565b600082601f83011261265657600080fd5b81356126668482602086016125b3565b91505092915050565b60008135905061267e8161395a565b92915050565b60006020828403121561269657600080fd5b60006126a4848285016125f1565b91505092915050565b600080604083850312156126c057600080fd5b60006126ce858286016125f1565b92505060206126df858286016125f1565b9150509250929050565b6000806000606084860312156126fe57600080fd5b600061270c868287016125f1565b935050602061271d868287016125f1565b925050604061272e8682870161266f565b9150509250925092565b6000806000806080858703121561274e57600080fd5b600061275c878288016125f1565b945050602061276d878288016125f1565b935050604061277e8782880161266f565b925050606085013567ffffffffffffffff81111561279b57600080fd5b6127a787828801612645565b91505092959194509250565b600080604083850312156127c657600080fd5b60006127d4858286016125f1565b92505060206127e585828601612606565b9150509250929050565b6000806040838503121561280257600080fd5b6000612810858286016125f1565b92505060206128218582860161266f565b9150509250929050565b60006020828403121561283d57600080fd5b600061284b8482850161261b565b91505092915050565b60006020828403121561286657600080fd5b600061287484828501612630565b91505092915050565b60006020828403121561288f57600080fd5b600061289d8482850161266f565b91505092915050565b600080604083850312156128b957600080fd5b60006128c78582860161266f565b92505060206128d88582860161266f565b9150509250929050565b60006128ee8383612c8a565b60608301905092915050565b6129038161320e565b82525050565b6129128161320e565b82525050565b612921816131fc565b82525050565b6000612932826130d5565b61293c8185613103565b9350612947836130c5565b8060005b8381101561297857815161295f88826128e2565b975061296a836130f6565b92505060018101905061294b565b5085935050505092915050565b61298e81613220565b82525050565b600061299f826130e0565b6129a98185613114565b93506129b9818560208601613291565b6129c28161345d565b840191505092915050565b60006129d8826130eb565b6129e28185613125565b93506129f2818560208601613291565b6129fb8161345d565b840191505092915050565b6000612a11826130eb565b612a1b8185613136565b9350612a2b818560208601613291565b80840191505092915050565b6000612a44601f83613125565b9150612a4f8261346e565b602082019050919050565b6000612a67603283613125565b9150612a7282613497565b604082019050919050565b6000612a8a602683613125565b9150612a95826134e6565b604082019050919050565b6000612aad602583613125565b9150612ab882613535565b604082019050919050565b6000612ad0601083613125565b9150612adb82613584565b602082019050919050565b6000612af3602483613125565b9150612afe826135ad565b604082019050919050565b6000612b16601983613125565b9150612b21826135fc565b602082019050919050565b6000612b39602c83613125565b9150612b4482613625565b604082019050919050565b6000612b5c603883613125565b9150612b6782613674565b604082019050919050565b6000612b7f602a83613125565b9150612b8a826136c3565b604082019050919050565b6000612ba2602983613125565b9150612bad82613712565b604082019050919050565b6000612bc5603e83613125565b9150612bd082613761565b604082019050919050565b6000612be8602c83613125565b9150612bf3826137b0565b604082019050919050565b6000612c0b602083613125565b9150612c16826137ff565b602082019050919050565b6000612c2e602f83613125565b9150612c3982613828565b604082019050919050565b6000612c51602183613125565b9150612c5c82613877565b604082019050919050565b6000612c74603183613125565b9150612c7f826138c6565b604082019050919050565b606082016000820151612ca06000850182612ccc565b506020820151612cb360208501826128fa565b506040820151612cc66040850182612ccc565b50505050565b612cd581613278565b82525050565b612ce481613278565b82525050565b6000612cf68285612a06565b9150612d028284612a06565b91508190509392505050565b6000602082019050612d236000830184612918565b92915050565b6000608082019050612d3e6000830187612918565b612d4b6020830186612918565b612d586040830185612cdb565b8181036060830152612d6a8184612994565b905095945050505050565b6000604082019050612d8a6000830185612918565b612d976020830184612cdb565b9392505050565b60006020820190508181036000830152612db88184612927565b905092915050565b6000602082019050612dd56000830184612985565b92915050565b60006020820190508181036000830152612df581846129cd565b905092915050565b60006020820190508181036000830152612e1681612a37565b9050919050565b60006020820190508181036000830152612e3681612a5a565b9050919050565b60006020820190508181036000830152612e5681612a7d565b9050919050565b60006020820190508181036000830152612e7681612aa0565b9050919050565b60006020820190508181036000830152612e9681612ac3565b9050919050565b60006020820190508181036000830152612eb681612ae6565b9050919050565b60006020820190508181036000830152612ed681612b09565b9050919050565b60006020820190508181036000830152612ef681612b2c565b9050919050565b60006020820190508181036000830152612f1681612b4f565b9050919050565b60006020820190508181036000830152612f3681612b72565b9050919050565b60006020820190508181036000830152612f5681612b95565b9050919050565b60006020820190508181036000830152612f7681612bb8565b9050919050565b60006020820190508181036000830152612f9681612bdb565b9050919050565b60006020820190508181036000830152612fb681612bfe565b9050919050565b60006020820190508181036000830152612fd681612c21565b9050919050565b60006020820190508181036000830152612ff681612c44565b9050919050565b6000602082019050818103600083015261301681612c67565b9050919050565b60006020820190506130326000830184612cdb565b92915050565b600060608201905061304d6000830186612cdb565b61305a6020830185612909565b6130676040830184612cdb565b949350505050565b600061307961308a565b905061308582826132f6565b919050565b6000604051905090565b600067ffffffffffffffff8211156130af576130ae61342e565b5b6130b88261345d565b9050602081019050919050565b6000819050602082019050919050565b600081519050919050565b600081519050919050565b600081519050919050565b6000602082019050919050565b600082825260208201905092915050565b600082825260208201905092915050565b600082825260208201905092915050565b600081905092915050565b600061314c82613278565b915061315783613278565b9250827fffffffffffffffffffffffffffffffffffffffffffffffffffffffffffffffff0382111561318c5761318b6133a1565b5b828201905092915050565b60006131a282613278565b91506131ad83613278565b9250826131bd576131bc6133d0565b5b828204905092915050565b60006131d382613278565b91506131de83613278565b9250828210156131f1576131f06133a1565b5b828203905092915050565b600061320782613258565b9050919050565b600061321982613258565b9050919050565b60008115159050919050565b60007fffffffff0000000000000000000000000000000000000000000000000000000082169050919050565b600073ffffffffffffffffffffffffffffffffffffffff82169050919050565b6000819050919050565b82818337600083830152505050565b60005b838110156132af578082015181840152602081019050613294565b838111156132be576000848401525b50505050565b600060028204905060018216806132dc57607f821691505b602082108114156132f0576132ef6133ff565b5b50919050565b6132ff8261345d565b810181811067ffffffffffffffff8211171561331e5761331d61342e565b5b80604052505050565b600061333282613278565b91507fffffffffffffffffffffffffffffffffffffffffffffffffffffffffffffffff821415613365576133646133a1565b5b600182019050919050565b600061337b82613278565b915061338683613278565b925082613396576133956133d0565b5b828206905092915050565b7f4e487b7100000000000000000000000000000000000000000000000000000000600052601160045260246000fd5b7f4e487b7100000000000000000000000000000000000000000000000000000000600052601260045260246000fd5b7f4e487b7100000000000000000000000000000000000000000000000000000000600052602260045260246000fd5b7f4e487b7100000000000000000000000000000000000000000000000000000000600052604160045260246000fd5b6000601f19601f8301169050919050565b7f5072696365206d7573742062652067726561746572207468616e207a65726f00600082015250565b7f4552433732313a207472616e7366657220746f206e6f6e20455243373231526560008201527f63656976657220696d706c656d656e7465720000000000000000000000000000602082015250565b7f4f776e61626c653a206e6577206f776e657220697320746865207a65726f206160008201527f6464726573730000000000000000000000000000000000000000000000000000602082015250565b7f4552433732313a207472616e736665722066726f6d20696e636f72726563742060008201527f6f776e6572000000000000000000000000000000000000000000000000000000602082015250565b7f4d7573742070617920726f79616c747900000000000000000000000000000000600082015250565b7f4552433732313a207472616e7366657220746f20746865207a65726f2061646460008201527f7265737300000000000000000000000000000000000000000000000000000000602082015250565b7f4552433732313a20617070726f766520746f2063616c6c657200000000000000600082015250565b7f4552433732313a206f70657261746f7220717565727920666f72206e6f6e657860008201527f697374656e7420746f6b656e0000000000000000000000000000000000000000602082015250565b7f4552433732313a20617070726f76652063616c6c6572206973206e6f74206f7760008201527f6e6572206e6f7220617070726f76656420666f7220616c6c0000000000000000602082015250565b7f4552433732313a2062616c616e636520717565727920666f7220746865207a6560008201527f726f206164647265737300000000000000000000000000000000000000000000602082015250565b7f4552433732313a206f776e657220717565727920666f72206e6f6e657869737460008201527f656e7420746f6b656e0000000000000000000000000000000000000000000000602082015250565b7f506c656173652073656e64207468652061736b696e6720707269636520696e2060008201527f6f7264657220746f20636f6d706c657465207468652070757263686173650000602082015250565b7f4552433732313a20617070726f76656420717565727920666f72206e6f6e657860008201527f697374656e7420746f6b656e0000000000000000000000000000000000000000602082015250565b7f4f776e61626c653a2063616c6c6572206973206e6f7420746865206f776e6572600082015250565b7f4552433732314d657461646174613a2055524920717565727920666f72206e6f60008201527f6e6578697374656e7420746f6b656e0000000000000000000000000000000000602082015250565b7f4552433732313a20617070726f76616c20746f2063757272656e74206f776e6560008201527f7200000000000000000000000000000000000000000000000000000000000000602082015250565b7f4552433732313a207472616e736665722063616c6c6572206973206e6f74206f60008201527f776e6572206e6f7220617070726f766564000000000000000000000000000000602082015250565b61391e816131fc565b811461392957600080fd5b50565b61393581613220565b811461394057600080fd5b50565b61394c8161322c565b811461395757600080fd5b50565b61396381613278565b811461396e57600080fd5b5056fea264697066735822122063f76788660729aecc63215219ad8e10c30602641b883e9cc6f6731364c07e5c64736f6c6343000804003368747470733a2f2f6261667962656964686a6a626a6f6e7971636168757a6c707437737a6e6d683478726c62737061336773746f70356f34376c3667736961666665652e697066732e6e667473746f726167652e6c696e6b2f",
  "linkReferences": {},
  "deployedLinkReferences": {}
}